:020000040000fa
:080000000002040000000000f2
:020000040000fa
:04000800fa020000f8
:020000040000fa
:04000c0004030000e9
:020000040000fa
:0400100034030000b5
:020000040000fa
:040014000e030000d7
:020000040000fa
:0400180018030000c9
:020000040000fa
:04001c0022030000bb
:020000040000fa
:040020003c0300009d
:020000040000fa
:040024002c030000a9
:020000040000fa
:040028002c030000a5
:020000040000fa
:04002c002c030000a1
:020000040000fa
:040030002c0300009d
:020000040000fa
:04003400583c000034
:020000040000fa
:040038002c1c00007c
:020000040000fa
:04003c002c03000091
:020000040000fa
:040040002c0300008d
:020000040000fa
:040044002c03000089
:020000040000fa
:040048002c03000085
:020000040000fa
:04004c002c03000081
:020000040000fa
:040050002c0300007d
:020000040000fa
:040054004403000061
:020000040000fa
:04005800740300002d
:020000040000fa
:04005c002c03000071
:020000040000fa
:040060002c0300006d
:020000040000fa
:040064002c03000069
:020000040000fa
:040068002c03000065
:020000040000fa
:04006c002c03000061
:020000040000fa
:040070002c0300005d
:020000040000fa
:040074002c03000059
:020000040000fa
:040078002c03000055
:020000040000fa
:04007c002c03000051
:020000040000fa
:040080002c0300004d
:020000040000fa
:040084002c03000049
:020000040000fa
:04008800e41c000074
:020000040000fa
:04008c002c03000041
:020000040000fa
:040090002c0300003d
:020000040000fa
:040094002c03000039
:020000040000fa
:040098002c03000035
:020000040000fa
:04009c002c03000031
:020000040000fa
:0400a0002c0300002d
:020000040000fa
:0400a4002c03000029
:020000040000fa
:0400a8002c03000025
:020000040000fa
:0400ac002c03000021
:020000040000fa
:0400b0002c0300001d
:020000040000fa
:0400b4001a1d000011
:020000040000fa
:0400b8002c03000015
:020000040000fa
:0400bc002c03000011
:020000040000fa
:0400c0002c0300000d
:020000040000fa
:0400c4002c03000009
:020000040000fa
:0400c8002c03000005
:020000040000fa
:0400cc002c03000001
:020000040000fa
:0400d0002c030000fd
:020000040000fa
:0400d4002c030000f9
:020000040000fa
:0400d8002c030000f5
:020000040000fa
:0400dc002c030000f1
:020000040000fa
:0400e0002c030000ed
:020000040000fa
:0400e4002c030000e9
:020000040000fa
:0400e8002c030000e5
:020000040000fa
:0400ec002c030000e1
:020000040000fa
:0400f0002c030000dd
:020000040000fa
:0400f4002c030000d9
:020000040000fa
:0400f8002c030000d5
:020000040000fa
:0400fc002c030000d1
:020000040000fa
:040100002c030000cc
:020000040000fa
:040104002c030000c8
:020000040000fa
:040108002c030000c4
:020000040000fa
:04010c002c030000c0
:020000040000fa
:040110002c030000bc
:020000040000fa
:040114002c030000b8
:020000040000fa
:040118002c030000b4
:020000040000fa
:04011c002c030000b0
:020000040000fa
:040120002c030000ac
:020000040000fa
:040124002c030000a8
:020000040000fa
:040128002c030000a4
:020000040000fa
:04012c002c030000a0
:020000040000fa
:040130002c0300009c
:020000040000fa
:040134002c03000098
:020000040000fa
:040138002c03000094
:020000040000fa
:04013c002c03000090
:020000040000fa
:040140002c0300008c
:020000040000fa
:040144002c03000088
:020000040000fa
:040148002c03000084
:020000040000fa
:04014c002c03000080
:020000040000fa
:040150002c0300007c
:020000040000fa
:040154002c03000078
:020000040000fa
:040158002c03000074
:020000040000fa
:04015c002c03000070
:020000040000fa
:040160002c0300006c
:020000040000fa
:040164002c03000068
:020000040000fa
:040168002c03000064
:020000040000fa
:04016c002c03000060
:020000040000fa
:040170002c0300005c
:020000040000fa
:040174002c03000058
:020000040000fa
:040178002c03000054
:020000040000fa
:04017c002c03000050
:020000040000fa
:040180002c0300004c
:020000040000fa
:040184002c03000048
:020000040000fa
:040188002c03000044
:020000040000fa
:04018c002c03000040
:020000040000fa
:040190002c0300003c
:020000040000fa
:040194002c03000038
:020000040000fa
:040198002c03000034
:020000040000fa
:04019c002c03000030
:020000040000fa
:0401a0002c0300002c
:020000040000fa
:0401a4002c03000028
:020000040000fa
:0401a8002c03000024
:020000040000fa
:0401ac002c03000020
:020000040000fa
:0401b0002c0300001c
:020000040000fa
:0401b4002c03000018
:020000040000fa
:0401b8002c03000014
:020000040000fa
:0401bc002c03000010
:020000040000fa
:0401c0002c0300000c
:020000040000fa
:0401c4002c03000008
:020000040000fa
:0401c8002c03000004
:020000040000fa
:0401cc002c03000000
:020000040000fa
:0401d0002c030000fc
:020000040000fa
:0401d4002c030000f8
:020000040000fa
:0401d8002c030000f4
:020000040000fa
:0401dc002c030000f0
:020000040000fa
:0401e0002c030000ec
:020000040000fa
:0401e4002c030000e8
:020000040000fa
:0401e8002c030000e4
:020000040000fa
:0401ec002c030000e0
:020000040000fa
:0401f0002c030000dc
:020000040000fa
:0401f4002c030000d8
:020000040000fa
:0401f8002c030000d4
:020000040000fa
:0401fc002c030000d0
:020000040000fa
:040200002c030000cb
:020000040000fa
:040204002c030000c7
:020000040000fa
:040208002c030000c3
:020000040000fa
:04020c002c030000bf
:020000040000fa
:040210002c030000bb
:020000040000fa
:040214002c030000b7
:020000040000fa
:040218002c030000b3
:020000040000fa
:04021c002c030000af
:020000040000fa
:040220002c030000ab
:020000040000fa
:040224002c030000a7
:020000040000fa
:040228002c030000a3
:020000040000fa
:04022c002c0300009f
:020000040000fa
:040230002c0300009b
:020000040000fa
:040234002c03000097
:020000040000fa
:040238002c03000093
:020000040000fa
:04023c002c0300008f
:020000040000fa
:040240002c0300008b
:020000040000fa
:040244002c03000087
:020000040000fa
:040248002c03000083
:020000040000fa
:04024c002c0300007f
:020000040000fa
:040250002c0300007b
:020000040000fa
:040254002c03000077
:020000040000fa
:040258002c03000073
:020000040000fa
:04025c002c0300006f
:020000040000fa
:040260002c0300006b
:020000040000fa
:040264002c03000067
:020000040000fa
:100400004f5121000eef27000e0188000000000070
:10041000000020000000e000020032000001200087
:1004200020028800140007003d0107000000e000e2
:1004300003003a0040cf23000100200002003700f3
:100440000000200001002000810f70000100320038
:100450000f000700000020000000e0000200320052
:1004600000000200000000008c2a020000000000d2
:100470000040da000000fe00804820000000e0009c
:1004800002003200002020009001880000000600d9
:10049000a1028800800478000000eb001f003700f4
:1004a000e284440054a0b4009905ba00e2844400f8
:1004b00054a0b4009906ba00e284440054a0b400e9
:1004c0000006eb00476fde00fd07b200ae018800ba
:1004d000636ce10003003a000ad801000000eb0061
:1004e0000e003700606ce10008003a00004deb00a0
:1004f0000a05e800020039003420ec000af0a000f0
:100500008b05e900f9ff3e00040037006168e10057
:10051000010032000086eb000b00070019c7ba008b
:100520001905ba000e04e00003003a000a00e000da
:10053000dbff3a0000000600fe07b200ae028800b2
:100540008a047800f5ff37000cd0a300e20f4d00bd
:100550001c00390089027800354dba000a05e80010
:10056000020039003420ec000af0a0008b05e900fd
:100570000f003200254dba000a05e80002003900dc
:100580003420ec000af0a0008b05e90008003200de
:100590000c00e0000600320015cdba000a05e800a4
:1005a000020039003420ec000af0a0008b05e900bd
:1005b0008984e80054a0b4000b00e000e2ff3a0098
:1005c000000006009902ba00055d78008b05e9007d
:1005d000f7ff3200c82ade00055d78008b05e900d0
:1005e000f3ff32000c00e000f1ff320019ddba0029
:1005f000eeff37000000fa00c028a9000000fe004e
:100600000080fa00004006000000fa00c068a9005f
:100610000000fe000080fa00004006000000fa0022
:10062000c048a9000000fe000080fa00004006005b
:100630000000fa00c088a9000000fe000080fa0057
:10064000004006000000fa00c0a8a9000000fe005b
:100650000080fa00004006000000fa000000fe00e2
:100660000080fa00004006000000fa000000fe00d2
:100670000080fa00004006000000fa000000fe00c2
:100680000080fa00004006003600f800809fbe009f
:10069000829fbe00849fbe00869fbe000200fa00bb
:1006a0003011800000407800004f78008e00780004
:1006b000e04c2100071b07000004e00002003a00a4
:1006c00040c0b300004f78000168a9000080fa0024
:1006d0004f03be004f02be004f01be004f00be00e0
:1006e0003600f900004006000000fa000188a90069
:1006f0000080fa00004006000000fa00c30320005a
:1007000012c0b300814d2100e04c2100ad1a07005a
:1007100021e2a90021a2a9002182a9002162a90049
:1007200001118000f0cf2f000080600000118800d0
:1007300020e2a90020c2a90020a2a9002062a900ed
:100740000111800090ff2f000080600000118800e0
:100750002002a900a00020004011880023e2a90087
:1007600023c2a90023a2a9002362a9002342a90051
:100770002322a9002302a90011118000f0f32f0009
:10078000008060001011880022a2a9002282a90026
:100790002262a9002242a9002222a9002202a90065
:1007a00000402400704288000188a9002188a90027
:1007b0000168a9002168a80021e2a8002342a8003e
:1007c0000080fa00000006000200fa00004f7800e6
:1007d0000000000011118000002020000080600057
:1007e0000000e000fbff3a001e00fb002011880023
:1007f0000080fa00000006000400fa0010079800cc
:100800001e009000104f78001e0090000000e800cd
:10081000100798001e4078000004e000020032003b
:100820001e407800e8ff07001e4078000004e0004a
:10083000f3ff3a000080fa00000006000200fa0010
:10084000000f78009e007800e04c2100351a070068
:100850000080fa00000006000000fa00e04c2100d1
:10086000d01907000080fa00000006000a00fa0014
:10087000e20f50001f003e0080ff8300e10f500098
:10088000060032008023200045232000232320007f
:10089000042320000000e00004003a008022200031
:1008a00045222000232220000422200006002800e8
:1008b0009403630002003a0007087800140a7300ea
:1008c00013a8a30001003a0013a0a00002007800c2
:1008d000050037001388a300feff32003102fb0041
:1008e000840a78000000e9000000e000f9ff3a0007
:1008f0000800370033002000b3bf9f00c0bf9f0037
:10090000d1bf9f00e2bf9f006a80570057030700d6
:100910006fb99700020078000080fa00000006001e
:10092000000005000c00fa00889fbe00000478005b
:10093000f0ff2700d0bf9f008004eb0099bf9f000d
:1009400088bf9f00a8bf9f00200c2000b0bf9f0061
:1009500078815700cfb097007080570010000700d3
:100960000fb89700094878008fb8970008805000aa
:100970004f04be000080fa0000000600d001900085
:10098000028151004240a9000300340010017800a8
:10099000014978000208e800010078000000060024
:1009a000f6874700889fbe008a9fbe008c9fbe00ce
:1009b0008e1f780000057800a1b79f00020778001d
:1009c0008004eb008d023700afb097008100e80093
:1009d000a1b79f0051c2b300814f500003003a00fd
:1009e000afb097000004eb0011003700ba00900090
:1009f0000000fb000168a300070032000901780035
:100a0000800078000a007800dcff07000000e000aa
:100a100005003a00790237008a0078008302070057
:100a2000e10f4000750232008904e80073023700cc
:100a30000100780031417800d3c2b300834f5100e8
:100a40000c00320007003c00edc15100834f510003
:100a50000a003200ebc14100834f51000d003a0003
:100a60000800370003c3b300834f510009003a0068
:100a7000060037000830a000edff37000800a00096
:100a8000ebff37000810a000e9ff37000820a000a6
:100a9000e7ff37000818a300010032000800a1009a
:100aa0000838a300010032000820a1008200fb00ea
:100ab0000103b100e98f50000c003e0000017800f6
:100ac0008000eb00ea08b900b200fb000103b100ae
:100ad00080804000020078009201fb000303b10017
:100ae000e98f5100f7ff3600060037008000eb0069
:100af000a3c2b300834f510002003a00ce00780039
:100b00000000e8008005eb00e2c2b300904f110046
:100b100008003a0008e0a00064415100d04f1100e5
:100b2000020032000001780006003700ce05780090
:100b30000000e8000001780008003700ea58b9001a
:100b40008085410002007800b201fb000303b10080
:100b5000e98f5100f9ff3600f6ff37003240780088
:100b6000a2b79f00c3c6b300834f500025003200d8
:100b70000f003c0032c6b300824f500088003200a4
:100b800004003c000004e000210232006b415100ef
:100b90000f00370042c6b300824f500017003200ea
:100ba00065414100824f500094003a001300370025
:100bb00032c7b300824f50001b00320007003c00d8
:100bc00064415100824f5000100032000241e800a1
:100bd000824f500089003a000f00370052c7b3001f
:100be000824f50008a00320063414100824f500022
:100bf00082003a00e0df9f0009003700e0df9f003d
:100c0000850037000840a000d4ff3700e0df9f00d8
:100c10000860a00080003700e0df9f000850a000bf
:100c20000870a0007c003700e0df9f004e007800d5
:100c3000000678000000e00001003a00ec492100c5
:100c40000c0178000000eb00010037000000e80014
:100c5000800141001304e000fcff3a0080067800a8
:100c60000b00e000030032008d8f550001003100c1
:100c70008b0678008005eb008d8f50000100360058
:100c80008d855000680464002a003a001100370086
:100c90003a0090000068a3000700320009017800c4
:100ca000010220000a00780034ff07000000e00085
:100cb00006003a00060037008a0078000002200093
:100cc000da010700e10f4000010032008904e8006a
:100cd0008b05e9000b00e000edff3a008085eb009a
:100ce000140037003a0090000068a30009003200a9
:100cf0000c007800b000fb000006780009017800c5
:100d00000a0078001dff07000000e00008003a001c
:100d1000080037008c0078003100fb0001067800e5
:100d20008a007800c1010700e10f40000100320095
:100d30008904e8000d0078008006e9000000e0006a
:100d4000e8ff3a000800e000ac0132001100370073
:100d50003a0090000068a300070032000901780003
:100d6000010220000a00780004ff07000000e000f4
:100d700006003a00060037008a00780000022000d2
:100d8000aa010700e10f4000010032008904e800d9
:100d90008b05e9000b00e000edff3a0097013700fa
:100da0004e017800cf91de00c81ade004818dd0041
:100db0004812de0004027000e4df9f000848a30030
:100dc000080032000404e00006003200e14f420057
:100dd00004003200f4df9f0082e79f002d00200016
:100de00002003700f2df9f001d002000e2fd2f000f
:100df0000f0141000206e80099ff3700e0df9f0085
:100e0000ecfd2f000f0646001d00200094ff370068
:100e1000e0df9f00080cb30008017800020cb2006c
:100e2000700064000200e0000d003a000000e000e5
:100e3000020032004e06be00020037004e06780067
:100e4000cfe6de00e00f5600e08f5e000a003d00b6
:100e50003800b30060061600e0861e00060037006a
:100e60000000e000020032004e06be000200370023
:100e70004e0678008006eb000b00e00005003a000b
:100e80008c8576000bf0a7008b05ea008b05e90046
:100e9000cf5dde0088017800030cb200e3b79f004d
:100ea00000042000808f51002300320003003c002a
:100eb0000300e000080032002d0037000008200089
:100ec0006fb29700800f52000d003200000c20001e
:100ed000800f520026003a00624a210010c0b30081
:100ee00064014100b20f5600a28f5e001f0039005e
:100ef0000040e800ea4f5000f9ff3a001b003700bd
:100f000010c0b3000201200003002000820f560031
:100f1000838f5e0015003900441add00cc11de001d
:100f2000830172004411dd000040e800e84f5000ea
:100f3000f6ff3a000d00370010c0b3008200200019
:100f400003002000820f5600838f5e0007003900e7
:100f5000431add00cd11de00830172004311dd0074
:100f60000040e800eb4f5000f6ff3a00e0df9f0042
:100f70006fd997000200fb008b0f500002003d006c
:100f8000ebdf9f0003003700808f550001003d001c
:100f9000800578000100e000030032006300640077
:100fa000010032008100e90008e8a30005003200da
:100fb0008b8f5000020034008b80500001003700fe
:100fc0008000eb00efd997000300fb000002eb006c
:100fd000d4b79f00808f5000020034000080500082
:100fe000d0b79f000828a3004000320061016400d0
:100ff0000818a3000f0032003a0090000068a30018
:1010000006003200b10220000200e00001003200c0
:101010008180e800090178000d003700b00220004f
:101020000200e000010032000080e8008a00780041
:101030000e0037000200e000100032003a0090007d
:101040000068a300070032000901780001022000b7
:101050000a00780049fe07000000e00006003a00a0
:10106000060037008a00780000022000ef00070029
:10107000e10f4000010032008904e8005fb09700f2
:101080000000e0005a003200bcb79f00cdb79f00bf
:10109000800678003a0090000068a3000700320044
:1010a00009017800010320000a00780033fe0700e0
:1010b0000000e00006003a00060037008a007800d1
:1010c00000032000d9000700e10f400001003200ba
:1010d0008904e8008d06e900eeff3a00ddb79f00c5
:1010e0003fb69700cfb6970041003700dfb19700b9
:1010f0000300e0001a0032000838a30018003a008c
:10110000bcb79f00cdb79f00830678003a009000df
:101110000068a300070032000901780001022000e6
:101120000a00780015fe07000000e00006003a0003
:10113000060037008a00780000022000bb0007008c
:10114000e10f4000010032008904e8008d06e9004b
:10115000eeff3a00ddb79f003fb69700cfb697008d
:10116000610164000818a3000f0032003a009000eb
:101170000068a30006003200b10220000200e00077
:10118000010032008180e800090178000d0037007d
:10119000b00220000200e000010032000080e80000
:1011a0008a0078000e0037000200e00010003200d4
:1011b0003a0090000068a30007003200090178009f
:1011c000010220000a007800ecfd07000000e000aa
:1011d00006003a00060037008a007800000220006e
:1011e00092000700e10f4000010032008904e8008e
:1011f0000b03e900e331b900b2b79f004233dd00d1
:10120000604a2100000343008e01780093b79f00dd
:1012100008077800060478005c0037008b05e900b9
:10122000000420006fb29700800f52003800320097
:1012300003003c000400e000080032003e003700dc
:1012400000082000efb09700808f5000200032008f
:10125000000c2000808f500037003a000e48a30099
:10126000100032001802be000401be000c00be00d7
:10127000f4b79f0085bf9f00fe000700e0df9f00de
:101280000000fb00cf80de007fb297008fba97008e
:101290000401be00070107000006560081865e00bb
:1012a0000700370018017800110009000286d800f5
:1012b000a2002000110009000280d800e1df9f0099
:1012c0006fd997000243b000e2df9f001a00370099
:1012d000d04821000e58a30001003200c047210071
:1012e000614a2100810054000c01be008100e90028
:1012f000030033008301d1000281d300fbff3700dc
:10130000ef00610001004000104078000900370044
:101310000c00be003fb297000402e9000300330056
:101320008100d1000080d300fbff370067406000e0
:101330000043b000e0df9f00ba0090006fd9970033
:101340000200fb000168a3000700320009017800d9
:10135000800078000a00780088fd07000000e000a7
:1013600005003a00050037008a0078002f000700ca
:10137000e10f4000010032008904e8003fb297000d
:1013800063025200b4b79f00640454000b00e000f5
:10139000a2ff3a000e0478001fb797000838a30098
:1013a000160032005fb097000000e0001300340028
:1013b000000478003a0090000068a30007003200a3
:1013c00009017800010220000a0078006bfd070087
:1013d0000000e00006003a00060037008a007800ae
:1013e0000002200011000700e10f40000100320060
:1013f0008904e8000804e900eeff3a00afb0970066
:1014000011407800e0df9f000004e0006efd3a002c
:10141000090078004f0778004f06be004f05be0058
:101420004f04be006f01b10000000600889fbe009f
:1014300001047800b80090008084eb000118a3003c
:101440003a003200180190000198a30002003a000f
:101450000200e00035003a000190a000310498003d
:1014600080047800f90fb2000200e00002003a00a8
:1014700028009000000c7800ea8f540005003a0024
:101480000178a30003003a0088007800d000200013
:10149000e6ff070018009000d8009000810f500070
:1014a0000b0032000000e8001004980018007800db
:1014b00009487800000ce80011c0b30060fe270066
:1014c00001487800ea8f540018003a000500370000
:1014d0008800780009407800250007008004780023
:1014e00012003700380090000088a3000f0032007f
:1014f00018019000a800900048009000dbfc070055
:1015000098009000810f50000400320038009000d5
:101510000003b300300498008084eb000000eb006f
:101520001004980028009000000c78000900780052
:101530004f04be0000000600800178000200370062
:10154000b15978000201e9000200e000fcff3a0016
:101550000000060080017800020037008159780001
:101560000201e9000200e000fcff3a000000060072
:101570000200fa00889fbe00a0ff9f0001047800cf
:10158000380090000068a30033003a00e2006000d9
:1015900005003a000003b3003004980011049800dd
:1015a0000080eb002e003700d80490000900e00016
:1015b00006003a0012002000e68057004800900024
:1015c000aafc07001904980023003700a800900027
:1015d0000100e00008003a0091fe27002104980075
:1015e000010c78002100200051049800110498009b
:1015f0000030a0003004980018019000a80090006e
:101600004800900099fc0700280090008080eb00c3
:1016100011049800aff8970001487800000ce8002a
:101620002ff89700ea4f50000b003a003800900066
:101630000088a3000800320018019000a800900064
:101640004800900089fc07000000eb00100498009f
:10165000a8009000010c7800aff897000100fb0093
:101660004f04be000080fa000000060000c0da004f
:10167000000006006022b800060220000000d00032
:101680008180d2000482d2008582d2000000a000b6
:101690000202520083825a0003003100020242001b
:1016a00083824a000000a1000603e900f3ff3a002c
:1016b00000000600020ab900001bb9000200b800d1
:0c16c00081004200810043000000060091
:020000040000fa
:1016cc0062720000696400006765000074650000c8
:1016dc00636800006e6f00006c6f0000677900009b
:1016ec00000d00000a4c00004f5200004149000060
:1016fc002056000065720000203100002e300000e2
:10170c00210d00000a0000004e6f00002053000065
:10171c00656e0000736f00007273000020440000bf
:10172c0065740000656300007465000064210000ae
:10173c000d0a0000004600006f7500006e6400008a
:10174c002025000064200000536500006e7300002b
:10175c006f720000732100000d0a000000460000ab
:10176c0041250000643a0000494e00002564000049
:10177c003a4f000055540000256400003a54000014
:10178c0058250000640d00000a00000041540000c0
:10179c00453000000a000000415400002b540000aa
:1017ac00585000003d320000300a0000004100009b
:1017bc00542b000054580000445200003d310000ee
:1017cc00300a000000410000542b00004e4900007c
:1017dc003d3100002c250000730a00000041000080
:1017ec00542b00004e4b00003d3100002c25000016
:1017fc00730a000000410000542b0000414300001c
:10180c004b3d0000380a000000410000542b000042
:10181c00504e00003d3000000a0000004154000012
:10182c002b460000534200003d250000640a0000d6
:10183c0000410000542b00004a4f0000494e0000ac
:10184c000a000000415400000a000000415400004e
:10185c00490a000000410000545a00000a00000030
:10186c0041540000563100000a00000041540000b1
:10187c00264600000a0000004154000026570000d4
:10188c000a00000041540000265600000a00000027
:10189c0041540000265300000a000000415400008f
:1018ac00265200000a000000415400002b490000a1
:1018bc00505200000a000000415400002b5300005d
:1018cc004d4f000044450000300a0000004100006c
:1018dc00542b00004c4f0000473000000a00000061
:1018ec00415400002b46000052450000510a0000f4
:1018fc0000410000542b000046530000420a000037
:10190c0000410000542b0000504e0000300a000033
:10191c0000410000542b0000444900000a00000064
:10192c00415400002b4e0000410a00000041000011
:10193c00542b00004e5300004b0a000000410000e5
:10194c00542b0000445300004b0a000000410000df
:10195c00542b00004e4b00000a00000041540000c4
:10196c002b4e0000490a000000410000542b0000df
:10197c004a5200000a000000415400002b4a0000ab
:10198c00424f00000a000000415400002b4e0000a2
:10199c004a4d00000a000000415400002b4e00008c
:1019ac004a5300000a000000415400002b4e000076
:1019bc004c4300000a000000415400002b4c000076
:1019cc00434300000a000000415400002b4c00006f
:1019dc00435400000a000000415400002b45000055
:1019ec004e4300000a000000415400002b5200003e
:1019fc0053530000490a000000410000542b000022
:101a0c00534e0000520a000000410000542b00000d
:101a1c00445000000a000000415400002b5000000c
:101a2c00494e0000470a000000410000542b000002
:101a3c0054580000445200000a00000041540000b9
:101a4c002b540000585000000a00000041540000c4
:101a5c002b5400005846000020390000313500009e
:101a6c000a000000415400002b54000058460000ae
:101a7c0020380000363800000a00000041540000f5
:101a8c002b54000058430000480a0000004100009d
:101a9c00542b0000544f0000410a0000004100008c
:101aac00542b000054580000490a0000004100006b
:101abc00542b000054580000573100000a0000005d
:101acc00415400002b46000053420000203100001e
:101adc000a000000415400002b5200005844000042
:101aec00520a000000410000542b00005258000024
:101afc00460a000000410000542b00005258000020
:101b0c00490a000000410000542b0000464500002b
:101b1c00430a000000410000542b00004352000017
:101b2c00430a000000410000542b00004144000017
:101b3c00523100000a000000415400002b4100000b
:101b4c00434b00000a000000415400002b530000de
:101b5c00454e0000440a000000410000542b0000d8
:101b6c00534500004e440000420a000000410000b2
:101b7c00542b0000534500004e440000480a00005e
:101b8c0000410000542b0000534500004e4400005f
:101b9c00490a000000410000542b0000524500008f
:101bac00435600000a000000415400002b52000074
:101bbc0045430000564300000a0000004154000059
:101bcc002b540000584e00000a0000004154000045
:101bdc002b520000584f00000a0000004154000036
:101bec002b530000440a000000410000542b00005d
:101bfc00534c000045450000500a00000041000015
:101c0c00542b0000574d00000a0000004154000006
:101c1c002b570000490a000000410000542b000023
:101c2c00574400000a000000415400002b570000ec
:101c3c00544f00000a000000494e000049540000b7
:101c4c00205600004152000049410000424c000067
:101c5c00455300000a000000464f0000554e00009e
:101c6c0044200000534500004e5300004f5200002a
:101c7c002025000064200000636100006e2000003d
:101c8c0061640000647200003d2500006c78000067
:101c9c000d0a0000004400004f4f000052200000cd
:101cac0053540000415400005553000020250000ff
:101cbc006420000061640000647200003d25000097
:101ccc006c7800000d0a000000460000554e000024
:101cdc004320000041520000454100002053000009
:101cec0054410000545500005320000025640000ae
:101cfc002061000064640000723d0000256c00004f
:101d0c00780d00000a00000069640000783d0000b6
:101d1c00256400002061000064640000723d000036
:101d2c00256c000078200000666100003d25000055
:101d3c0064200000696e00003d2500006420000056
:101d4c006f750000743d00002564000020730000d6
:101d5c007461000074750000733d00002564000080
:101d6c0020730000616200006f7400006167000066
:101d7c00653d0000256400000d0a000000530000c2
:101d8c005441000052540000494e0000472000000e
:101d9c00555000000a000000524500005345000059
:101dac00540a000000480000454100005254000055
:101dbc0042450000415400000a0000004445000068
:101dcc0042550000472000004d4f000044450000e4
:101ddc00204f0000464600000a0000004445000069
:101dec0042550000472000004d4f000044450000c4
:101dfc00204f00004e0a0000004f0000504500002c
:101e0c004e200000414c00004c200000444f0000cc
:101e1c004f520000530a0000004300004c4f0000da
:101e2c0053450000204100004c4c000020440000b1
:101e3c004f4f0000525300000a000000536800008e
:101e4c006f7700002044000061740000610a0000fc
:101e5c000030000078660000312000006f72000036
:101e6c0020720000202d000020720000657300001d
:101e7c006574000020700000726f00006365000044
:101e8c00737300006f7200000a00000030780000cd
:101e9c0066320000206f00007220000068200000f5
:101eac002d200000736500006e64000020680000a7
:101ebc0065610000727400006265000061740000ce
:101ecc000a0000003078000066330000206f00002c
:101edc0072200000642000002d200000746f0000b0
:101eec00676700006c6500002064000065620000fc
:101efc0075670000206d00006f640000650a00002b
:101f0c0000640000202d0000207400006f670000aa
:101f1c00676c0000652000006465000062750000bd
:101f2c00672000006d6f0000646500000a0000006f
:101f3c006f2000002d2000006f700000656e000007
:101f4c00206400006f6f0000727300000a00000034
:101f5c00632000002d200000636c00006f730000f4
:101f6c0065200000646f00006f720000730a0000af
:101f7c0000730000202d000020730000686f00002b
:101f8c0077200000616c00006c2000006461000090
:101f9c00746100000a0000004c6f000073740000b4
:101fac0020530000656e0000736f0000720000008b
:101fbc0036200000686f000075720000207400006d
:101fcc00696d0000656f0000757400000000000072
:020000040000fa
:101fdc000000fa0040c6b30026f0b70026d0bf00c0
:101fec000080fa00000006000000fa000164a9005d
:101ffc0081208000000c20000100700080208800ef
:10200c008120800000fc2f00008060007000b30075
:10201c008020880091208000800320000100700047
:10202c009020880012e4a80091208000f08f2f00ef
:10203c00808060000050200001007000902088001b
:10204c009120800080ff2f00008060000020a00005
:10205c009020880012c4a8000080fa00000006003e
:10206c000000fa0000022000c0028800d8ff070020
:10207c008302200022c1b30041062100a0052100eb
:10208c004d14070001208000f08f2f0000806000ad
:10209c0000a0a000002088000000000001208000ab
:1020ac00000e20008080600000082000808f50000f
:1020bc00faff3a00ccff070026d0bf000001fb005e
:1020cc00cf91de008002eb001400200011002000f4
:1020dc0010002000900207000004a8001404a800bf
:1020ec001424a8001444a8001464a8001484a800a4
:1020fc0014a4a80014c4a8000121800000ff2f0024
:10210c00008060000000a0000021880001218000f8
:10211c00f0f02f00008060000050a000002188002b
:10212c0001218000f00f2f00808060000030200023
:10213c00010070000021880001218000f0ff2000c8
:10214c000080600000e0a0000021880011218000c8
:10215c0000ff2f00008060005000b30010218800a9
:10216c0011218000f0f02f0080806000000620001c
:10217c00010070001021880011218000f00f2f0049
:10218c008080600000702000010070001021880029
:10219c0026d0bf000000fb00f17f20000100600092
:1021ac004500dd0001228000ff806000010070000e
:1021bc000022880026d0bf000000fb00f17f200029
:1021cc00010060004500dd0021228000ff806000de
:1021dc00010070002022880026d0bf000000fb0008
:1021ec00f17f2000010060004500dd0041228000ed
:1021fc00ff806000010070004022880026d0bf00e4
:10220c000000fb00f17f2000010060004500dd00b4
:10221c0061228000ff806000010070006022880055
:10222c0026d0bf000000fb00f17f20000100600001
:10223c004500dd0081228000ff80600001007000fd
:10224c008022880026d0bf000000fb00f17f200018
:10225c00010060004500dd00a1228000ff806000cd
:10226c0001007000a022880026d0bf000000fb00f7
:10227c00f17f2000010060004500dd00c1228000dc
:10228c00ff80600001007000c0228800c120800027
:10229c00c0ff2f0000806000c0208800c12080009b
:1022ac0030ff2f0000806000c0208800c12080001b
:1022bc00f0fc2f0000806000c0208800c12080004e
:1022cc00f0f32f0000806000c0208800c120800047
:1022dc00f0cf2f0000806000c0208800c12080005b
:1022ec00f03f2f0000806000c0208800c1208000db
:1022fc00f0ff2c0000806000c0208800802180004e
:10230c007f006000802188003064a900812180005a
:10231c00c0ff2f00008060008021880031208000e9
:10232c00f0ff21008080600000002600010070009a
:10233c00302088003120800000fe2f0000806000db
:10234c00302088000004a90030e4a80031e4a90082
:10235c0032e4a90033e4a90034e4a90035e4a9006f
:10236c0036e4a90037e4a900802180003000b300d6
:10237c008021880081218000f0cf2f000080600038
:10238c000090a0008021880001208000f08f2f0099
:10239c000080600000208800000000000120800008
:1023ac00000e2000008060000000e000fbff3a00ff
:1023bc00e6040700f80407000080fa00000006009d
:1023cc000000fa000002eb008000eb00f2ff2f008f
:1023dc00e3ff21000000eb0022030700454424002a
:1023ec00343323002322220012112100810020000b
:1023fc000000eb001e0407000080fa00000006003d
:10240c003200fa00889fbe008a9fbe008c9fbe00df
:10241c00400f98000000eb00000f78000000eb006c
:10242c001007980066004700220120008000eb0096
:10243c0045fc070008f02700090020004e0890001a
:10244c004400dd008000eb00808fd2008180d20040
:10245c000000780000f0a1000801d0008001d0003d
:10246c00030041004220a80081804c004200a900da
:10247c004220ae004200a8000080d30093018000ef
:10248c000101780092018800000000000000780033
:10249c0010007800200798009301880000000000cd
:1024ac002e009000610f60002e0090006200600012
:1024bc00100798001e0078000000e0002a003a0087
:1024cc000af027000b0020004e0890004400dd00ad
:1024dc008000eb00808fd2008180d2000000780059
:1024ec0000f0a1000a02d0008002d00005004200da
:1024fc004220a80081804d004200a9004220ae007d
:10250c004200a8000080d300920180008101780075
:10251c009301880000000000000078009000780013
:10252c009201880000000000c0ff210000806000c4
:10253c004200de008000eb00500798006107980015
:10254c00ae009000c0ff2100008060004200de0061
:10255c008000eb00500798006107980040c0b30062
:10256c00004f9800880037002e0090008000eb0090
:10257c00c2ff2100030020008002780001027800d5
:10258c008200780003007800818262000000620003
:10259c008000eb00c000dd00000020000001be0048
:1025ac006128b8000001710081817100c010dd004c
:1025bc000000200050079800610798005e0390000f
:1025cc00ee0390000cf027000d0020004e08900048
:1025dc004400dd008000eb0062004000e080480019
:1025ec00000078008000eb00808fd2008180d20048
:1025fc000000780000f0a1000c01d0008001d00098
:10260c00030041004220a80081804e004200a90036
:10261c004220ae004200a8000080d300930180004d
:10262c000101780092018800000000000000780091
:10263c001000780093018800000000008000eb007f
:10264c00f2ff2000030020008002780001027800d5
:10265c008200780003007800818262000000620032
:10266c008000eb00c000dd00000020000001be0077
:10267c006128b80000017100818171004618dd00ed
:10268c00ca10de00810070004610dd00060040001c
:10269c008780480050079800610798005e039000ff
:1026ac00ee03900004f02700540f98000500200062
:1026bc00650f98004e0890004400dd008000eb0090
:1026cc0064004000e0804800000078008000eb00cf
:1026dc00808fd2008180d2000000780000f0a10031
:1026ec005e099000ee0990000202d0008002d0003a
:1026fc00050042004220a800818049004200a90048
:10270c004220ae004200a8000080d300930180005c
:10271c0001017800920188000000000000007800a0
:10272c001000780093018800000000004a00de00d1
:10273c008000eb00f2ff2f00030020000002780065
:10274c0081027800820078000300780001026200a8
:10275c00008062006101b800c011dd0002002000a1
:10276c000200be006121b80002007000838070007e
:10277c0006004000878048005007980061079800c9
:10278c0030c0b300004f98001e009000e10f5000c5
:10279c0003003a0020c0b30070479800cf00370008
:1027ac0010c0b3007047980001f02700710f98001b
:1027bc0002002000021798004e0890004400dd0033
:1027cc008000eb0066004000e080480000007800cc
:1027dc008000eb00808fd2008180d2000000780056
:1027ec0000f0a1007e0a90008e1290000401d0002f
:1027fc008001d000030041004220a80081804a00e3
:10280c004200a9004220ae004200a8000080d30084
:10281c009201800081017800930188000000000083
:10282c0000007800100078002007980092018800c2
:10283c00000000002e00900000407800604f9800cf
:10284c002e0090004800de0000407800704f980089
:10285c0004f0270014179800050020002517980095
:10286c004e0890004400dd008000eb006800400042
:10287c00e0804800000078008000eb00808fd200e0
:10288c008180d2000000780000f0a1001e119000a1
:10289c00ae1190000202d0008002d0000500420070
:1028ac004220a800818049004200a9004220ae00cd
:1028bc004200a8000080d3009201800081017800c2
:1028cc0093018800000000000000780010007800e0
:1028dc002007980092018800000000002e00900054
:1028ec0000407800005798002e0090004800de0051
:1028fc00004078001057980001f02700311798001d
:10290c0002002000421798004e0890004400dd00a1
:10291c008000eb006a004000e08048000000780076
:10292c008000eb00808fd2008180d2000000780004
:10293c0000f0a1003e129000ce1290000401d000d5
:10294c008001d000030041004220a80081804a0091
:10295c004200a9004220ae004200a8000080d30033
:10296c009201800081017800930188000000000032
:10297c000000780010007800200798009201880071
:10298c00000000002e0090000040780020579800b6
:10299c002e0090004800de00004078003057980070
:1029ac0004f02700541798000500200065179800c4
:1029bc004e0890004400dd008000eb006c004000ed
:1029cc00e0804800000078008000eb00808fd2008f
:1029dc008180d2000000780000f0a1005e11900010
:1029ec00ee1190000202d0008002d00005004200df
:1029fc004220a800818049004200a9004220ae007c
:102a0c004200a8000080d300920180008101780070
:102a1c00930188000000000000007800100078008e
:102a2c002007980092018800000000002e00900002
:102a3c0000407800405798002e0090004800de00bf
:102a4c00004078005057980001f02700711798004b
:102a5c0002002000021f98004e0890004400dd0088
:102a6c008000eb0064004000e0804800000078002b
:102a7c008000eb00808fd2008180d20000007800b3
:102a8c0000f0a1007e1290008e1a90000401d0007c
:102a9c008001d000030041004220a80081804a0040
:102aac004200a9004220ae004200a8000080d300e2
:102abc0092018000810178009301880000000000e1
:102acc0000007800100078009201880000000000df
:102adc00004078006f406000605798006600470027
:102aec0080007800a0052100f71107000004e00029
:102afc0004003a0010c0b30024f0b70040012000dd
:102b0c00281407004f06be004f05be004f04be0040
:102b1c000080fa00000006002000fa00200f980048
:102b2c00320f9800430f9800510f9800640f9800d3
:102b3c00750f98006000b800008fbe006000b800f0
:102b4c0020079800310798006000b80040079800f3
:102b5c00510798000004a8002e08900000004000c7
:102b6c0000004000800078000044200000804000fd
:102b7c00600798002e0890004280de0000004000a4
:102b8c008000780000422000008040007007980010
:102b9c002e0890004380de0000004000800078008a
:102bac008041200000804000000f98004041200030
:102bbc00100f98005e089000e10f500049003a0099
:102bcc003e099000ce099000f0ff2f00010020007c
:102bdc00020278000301780080017800010078007f
:102bec0003026200000061008000eb00c000dd0009
:102bfc00000020000001be006120b800000171003f
:102c0c008181710022079800330798003e089000dc
:102c1c00ce0890004088de00cf80de000001be00b0
:102c2c00300020000100200002027800030178002f
:102c3c00800178000100780003026200000061004e
:102c4c008000eb00c000dd00000020000001be0091
:102c5c006120b80000017100818171004207980069
:102c6c00530798003e089000ce0890004288de0082
:102c7c00cf80de000001be00f07f200001002000ac
:102c8c0002027800830178000001780001007800ce
:102c9c0002016200008061008000eb00c000dd00da
:102cac0000002000008fbe006110b8001e1f7000d5
:102cbc001e9770001e007800c500dd004e009000cd
:102ccc0000804000e80040006e0090000108780091
:102cdc006e0090000080e800ae00900001087800c3
:102cec00190037003e099000ce099000f07f2000bb
:102cfc0001002000020278008301780000017800b6
:102d0c000100780002016200008061008000eb008d
:102d1c00c000dd0000002000008fbe006110b80074
:102d2c001e1f70001e9770001e007800c500dd008d
:102d3c006e009000010878006e0090000080e800a2
:102d4c008000eb00010878007e0090009000780075
:102d5c002e089000630060004200dd00f2002000ad
:102d6c000010dd000080ea00808060007e00900092
:102d7c00010878002e089000630060004200dd001e
:102d8c00ee0890008008dd007e00900010007800b6
:102d9c00810070007e009000010878000e08900001
:102dac00900078002e089000670060000000400042
:102dbc00320020000010dd000080ea0080806000fe
:102dcc000e089000010878002e0890006700600043
:102ddc0000004000fe0890008008dd000e08900006
:102dec0010007800810070000e0890000108780037
:102dfc00110020002e0890000008dd0080007800f3
:102e0c001e08900010007800810070001e089000d1
:102e1c00010878000004a9000080fa0000000600f8
:102e2c001800fa0070079800020f9800130f980012
:102e3c00210f9800340f98006000b800008fbe007e
:102e4c006000b80020079800310798006000b800b7
:102e5c0040079800510798000004a8007e009000dd
:102e6c00000040000000400080007800004320007b
:102e7c0000804000600798003e089000e10f500071
:102e8c0053003a000e0990009e099000f0ff2f00ad
:102e9c000100200002027800030178008001780014
:102eac000100780003026200000061008000eb006a
:102ebc00c000dd00000020000001be006120b80051
:102ecc00000171008181710022079800330798007e
:102edc000e0890009e0890004088de00cf80de0037
:102eec000001be003000200001002000020278002a
:102efc000301780080017800010078000302620071
:102f0c00000061008000eb00c000dd00000020002c
:102f1c000001be006120b8000001710081817100c8
:102f2c0042079800530798000e0890009e089000e6
:102f3c004288de00cf80de000001be00f07f200062
:102f4c000100200002027800830178000001780063
:102f5c000100780002016200008061008000eb003b
:102f6c00c000dd0000002000008fbe006110b80022
:102f7c001e1f70001e9770002e089000e10f50006d
:102f8c0008003a001e007800c500dd004e009000dd
:102f9c0000804000e80040006e00900001087800be
:102fac00060037001e007800c500dd004e009000c2
:102fbc00808040006e009000010878006e00900048
:102fcc000080e800ae009000010878002200370075
:102fdc000e0990009e099000f07f20000100200057
:102fec00020278008301780000017800010078006b
:102ffc0002016200008061008000eb00c000dd0077
:10300c0000002000008fbe006110b8001e1f700071
:10301c001e9770002e089000e10f500006003a0039
:10302c001e0078004500dd00e80040006e009000b6
:10303c0001087800040037001e007800c500dd0090
:10304c006e009000010878006e0090000080e8008f
:10305c008000eb00010878000004a9000080fa0051
:10306c00000006002200fa00889fbe008a9fbe0066
:10307c008c9fbe00400f9800520f9800630f980071
:10308c00710f9800041798006000b800008fbe0004
:10309c006000b80020079800310798006000b80065
:1030ac0040079800510798006000b800600798002e
:1030bc00710798006000b800000f9800110f98007d
:1030cc006000b800200f9800310f98007e08900027
:1030dc000000e000460032005e099000ee0990000e
:1030ec00f0032000010020000202780003017800a8
:1030fc00800178000100780003026200000061008a
:10310c008000eb00c000dd00000020000001be00cc
:10311c006120b8000001710081817100020f9800dc
:10312c00130f98005e089000ee0890004a09dd002d
:10313c004600de0000007100c688de000001be0003
:10314c00f0ff20000100200002027800030178004b
:10315c008001780001007800030262000000610029
:10316c008000eb00c000dd00000020000001be006c
:10317c006120b8000001710081817100220f98005c
:10318c00330f98005e089000ee0890004288de0035
:10319c00cf80de000001be00f07f20000100200087
:1031ac0002027800030178008001780001007800a9
:1031bc0003026200000061008000eb00c000dd0033
:1031cc00000020000001be006120b8000001710069
:1031dc008181710062079800730798002e09900096
:1031ec00be0990002207980033079800130037009f
:1031fc005e099000ee099000f07f20000100200095
:10320c000202780003017800800178000100780048
:10321c0003026200000061008000eb00c000dd00d2
:10322c00000020000001be006120b8000001710008
:10323c008181710062079800730798000e1090004e
:10324c00e10f500017003a006e009000fe00900055
:10325c004209dd00ce01de00830171004201dd0078
:10326c007e0890008000eb000000710081807100ee
:10327c000001be000210a000028fbe000e099000db
:10328c009e0990004a18dd00c610de008100700017
:10329c004a10dd000090a0004007980051079800ec
:1032ac00120037006e009000fe0090004209dd0015
:1032bc00ce01de00830171004201dd007e0890002a
:1032cc008000eb00001f7100019771000e09900047
:1032dc009e0990004a18dd00c610de0081007000c7
:1032ec004a10dd0040079800510798007e089000b6
:1032fc000000e000180032001e0078008001780009
:10330c000310a0004e0890004400dd006100b800de
:10331c000cf027000d0020000002d0000c01d000a2
:10332c00020042004220a8008d8048004200a90003
:10333c004220ae004200a8000080d300a201800011
:10334c000102780000007800a401880003087800ce
:10335c00a2018800150037009e0178004e089000ed
:10336c004400dd006100b8000af027000b002000cb
:10337c000002d0000a01d000020042004220a80046
:10338c008b8048004200a9004220ae004200a800f9
:10339c000080d300a20180000102780000007800b8
:1033ac00a401880003087800a2018800ae019000f7
:1033bc004e0890004400dd000080e8006100b80079
:1033cc0008f02700090020000002d0000801d000fe
:1033dc00020042004220a800898048004200a90057
:1033ec004220ae004200a8000080d300a201800061
:1033fc000102780000007800a4018800030878001e
:10340c00a2018800ce0190004e0890004400dd001f
:10341c00640040006100b80006f02700070020009f
:10342c000002d0000601d000020042004220a80099
:10343c00878048004200a9004220ae004200a8004c
:10344c000080d300a2018000010278000000780007
:10345c00a401880003087800a20188004f06be0072
:10346c004f05be004f04be000080fa0000000600ad
:10347c001400fa00889fbe008a9fbe008c9fbe007d
:10348c00000f780011079800220798003307980066
:10349c00440798005507980001f027006107980031
:1034ac0002002000720798001e0078004400dd0026
:1034bc008000eb0064004000e080480000007800d1
:1034cc008000eb00808fd2008180d2000000780059
:1034dc0000f0a1006e029000fe0290000403d000e8
:1034ec000001d000020043004220a80081804a0065
:1034fc004200a9004220ae004200a8000080d30088
:10350c009201800081017800930188000000000086
:10351c000000780090007800920188000000000004
:10352c0000ff2f00808060001e0090008081400012
:10353c001e0078004400dd00640040006100b8000b
:10354c0004f02700040f980005002000150f9800c8
:10355c000e0a90009e0a90000003d0000401d000d7
:10356c00020043004220a800858048004200a900c8
:10357c004220ae004200a8000080d300a2018000cf
:10358c000102780000007800a4018800030878008c
:10359c00a20188001e0078004400dd006600400097
:1035ac006100b8000cf027000d0020008001d00055
:1035bc000c02d000048041004220a8008d804800fd
:1035cc004200a9004220ae004200a8000080d300b7
:1035dc00ae019000a201800001027800000078008a
:1035ec00a401880003087800a20188001e0078005e
:1035fc004400dd00680040006100b8000af02700bc
:10360c000b0020008002d0000a03d000068042008c
:10361c004220a8008b8048004200a9004220ae0046
:10362c004200a8000080d300be019000a2018000df
:10363c000102780000007800a401880003087800db
:10364c00a20188001e0078004400dd006a004000e2
:10365c006100b80008f02700090020000001d0002c
:10366c008801d000030041004220a8008980480056
:10367c004200a9004220ae004200a8000080d30006
:10368c00ce019000a20180000102780000007800b9
:10369c00a401880003087800a20188001e007800ad
:1036ac004400dd006c0040006100b80006f027000b
:1036bc00070020000002d0008602d0000500420066
:1036cc004220a800878048004200a9004220ae009a
:1036dc004200a8000080d300de019000a20180000f
:1036ec000102780000007800a4018800030878002b
:1036fc00a20188004f06be004f05be004f04be005d
:10370c000080fa00000006000400fa001007980080
:10371c000004a80040412000000f78001e00780033
:10372c0090007800120020001e0090000010dd00b8
:10373c000080ea00808060001e007800010878009c
:10374c000004a9000080fa00000006000000fa0046
:10375c00f02bef00f22bef00000222000058880043
:10376c0020442000605888007000200070588800a9
:10377c006004200010588800000020003058880099
:10378c0000f027002058880001eba8002088a80032
:10379c000080fa00000006000000fa00f02bef0099
:1037ac00f22bef0001598000f0fc2f00008060002c
:1037bc000050a0000059880001598000c0ff2f0064
:1037cc000080600000598800004420006059880087
:1037dc0000f0270020598800000020003059880094
:1037ec0070002000705988002002200010598800b9
:1037fc002308a80021eba8000080fa0000000600b6
:10380c000000fa0027d0bf000004e00005003200e1
:10381c0027d0bf000040e90027f0b70010c0b3006c
:10382c00010037000040eb000080fa0000000600a9
:10383c000200fa00000f78009e007800a00521001d
:10384c00350e07000080fa00000006003200f80078
:10385c003400f800881f780018002000a8018800a8
:10386c000820200098018800000000004f04780018
:10387c000000fa000088a9000080fa003400f9006a
:10388c003200f900004006000000fa000004a90014
:10389c0000218000620060000000e00006003200a1
:1038ac0027d0bf000040e80027f0b7001000200030
:1038bc00d3fa07002024a9000021800064006000d6
:1038cc000000e0000600320027d0bf000040e800f6
:1038dc0027f0b70020002000c9fa07002044a900f7
:1038ec0000218000680060000000e000060032004b
:1038fc0027d0bf000040e80027f0b70030002000c0
:10390c00bffa07002064a90000218000700060004d
:10391c000000e0000600320027d0bf000040e800a5
:10392c0027f0b70040002000b5fa07002084a9005a
:10393c000121800000022000008060000000e000f7
:10394c000600320027d0bf000040e80027f0b70087
:10395c0050002000aafa070020a4a9000121800031
:10396c0000042000008060000000e000060032002f
:10397c0027d0bf000040e80027f0b700600020000f
:10398c009ffa070020c4a900012180000008200034
:10399c00008060000000e0000600320027d0bf006d
:1039ac000040e80027f0b7007000200094fa0700f0
:1039bc0020e4a9000080fa00000006003600f800a0
:1039cc00809fbe00829fbe00849fbe00869fbe006b
:1039dc003200f8003400f80010002000a00188002c
:1039ec000020200090018800000000000000fa0078
:1039fc00002180000000e00001003200a2ff07005f
:103a0c000308a9000080fa003400f9003200f90024
:103a1c004f03be004f02be004f01be004f00be0060
:103a2c003600f90000400600801f78000000fa0004
:103a3c000468a90050208000610060000000e000d4
:103a4c00010032000a04a9005020800062006000ce
:103a5c000000e000010032000a24a9000080fa00f6
:103a6c004f007800004006000400fa00000f7800b8
:103a7c00110798001e0078006101b9000002eb00ec
:103a8c008000eb000000eb0076fd07001e009000ac
:103a9c008002eb000002eb008001eb0000017800db
:103aac00210020000000eb0071fe07000080fa00ee
:103abc00000006000a00fa004007980050818000c0
:103acc000000e800508188004e009000b00090008b
:103adc0020009000008fbe004e0090006800400057
:103aec00200798004e009000005090000080fb00d2
:103afc0030079800be0190002e0190001e00be0001
:103b0c000c0007000080fa00000006000000fa001c
:103b1c00802180006800600000f0a7000000ea002f
:103b2c000000e9004f00de00004078000080fa0041
:103b3c00000006001400fa00600798007107980056
:103b4c00020f9800130f98000000eb00000f780094
:103b5c000000eb00100798000000eb002007980015
:103b6c000000eb00300798006000b8004007980098
:103b7c00510798001700370014c0b3004e01900095
:103b8c00de019000f069280011002000800f510028
:103b9c00818f590001003e000042eb004e00900066
:103bac00de00900061004000e08048004007980073
:103bbc00510798000404e000040032003064a900ae
:103bcc0050012000f70f07006b0037000000eb00de
:103bdc00000f780080218000680060000000e00089
:103bec00e5ff3a00608180000002eb00110020002c
:103bfc006e019000fe0190001afd07001e08900057
:103c0c000000e000060034000e0890001040780020
:103c1c008000fb00f00f2000008060001e0f700081
:103c2c001e089000e10f5000060034000e089000b2
:103c3c000000e800104078000000fb004800dd00a8
:103c4c001e0f70001e089000e20f50000900340097
:103c5c000e0890000080e800104078008000fb0007
:103c6c00f00f2000008060009e00900001007000aa
:103c7c00100798001e089000e30f50000800340055
:103c8c000e08900063004000104078000000fb001c
:103c9c004800dd009e0090000100700010079800a5
:103cac001e089000e40f5000090034000e0890002c
:103cbc0064004000104078008000fb00f00f2000f2
:103ccc0000806000ae00900001007000200798009a
:103cdc001e089000e50f5000080034000e089000fc
:103cec0065004000104078000000fb004800dd003b
:103cfc00ae00900001007000200798001e08900094
:103d0c00e60f5000090034000e08900066004000d9
:103d1c00104078008000fb00f00f20000080600055
:103d2c00be00900001007000300798001e08900043
:103d3c00e70f5000080034000e08900067004000a8
:103d4c00104078000000fb004800dd00be00900031
:103d5c0001007000300798009e0890006081800080
:103d6c00be0290002e0290009e0190001e01780071
:103d7c00bffd07003064a8000080fa0000000600b8
:103d8c000200fa0020e22800a70507000630ef0029
:103d9c000870ef000970ef000a30ef000c30ef00f4
:103dac000000eb00000f7800250037001e007800a3
:103dbc00c200dd00c0402100008140006000b8005e
:103dcc000089be001e00780080004000c042210027
:103ddc00008040008000eb00010878001e00780095
:103dec0080004000c0432100008040008000eb00b8
:103dfc00010878001e00780080004000c0442100bb
:103e0c00008040008000eb00010878001e00780064
:103e1c0080004000c0452100008040008000eb0085
:103e2c00010878001e00780080004000c046210088
:103e3c00008040008000eb00010878001e0fe800b5
:103e4c001e007800e70f5000d8ff34000080fa0005
:103e5c00000006000600fa001007980021079800e1
:103e6c000000eb00000f78000d0037001e007800fa
:103e7c00c200dd00c0402100008040001001be00e7
:103e8c001e009000ae009000800f5100818f5900f1
:103e9c0002003a001e007800050037001e0fe800f3
:103eac001e007800e70f5000f0ff34000000eb001c
:103ebc000080fa00000006000600fa005a00070015
:103ecc0010079800210798000000eb00000f780005
:103edc000d0037001e007800c200dd00c04021003c
:103eec00008040001001be001e009000ae0090004b
:103efc00800f5100818f590002003a001e0078009b
:103f0c00050037001e0fe8001e007800e70f500078
:103f1c00f0ff34000000eb000080fa000000060007
:103f2c000400fa000000eb00100798000ef0970058
:103f3c000080fb00100798000000eb00000f7800d9
:103f4c00070037009e00780068804000f80057009a
:103f5c000080400010407800430507001e0fe80069
:103f6c000ef897000080fb009e0f5000f5ff3c0000
:103f7c000080fa00000006000200fa000000eb00ce
:103f8c00000f78000ef097000080fb00000f780007
:103f9c001e007800e90f50000a003c001e0078005b
:103fac00f200b900800078006034210000804000ed
:103fbc00f8005700220120005cf507001e00780075
:103fcc0002003700370007000000eb000080fa0009
:103fdc00000006000000fa0009fe07000004e000e3
:103fec000e003200408180000000e8004081880013
:103ffc00403321000efe0700f28747007280570005
:10400c004133210008000900311878002001b1006b
:10401c00d9ff0700f2875700010037000000eb00c2
:10402c000080fa00000006000000fa00e29a80000e
:10403c00f39a8000f0ff2f0071002000020278003c
:10404c00030178008001780001007800030262000f
:10405c00000061008000eb00c000dd0000002000cb
:10406c000001be006120b800000171008181710067
:10407c000200be000080fa00000006000000fa00fa
:10408c000200370040332100e9fd0700dcfd07008a
:10409c000004e000fbff3a00020007000080fa0079
:1040ac00000006000200fa000000eb00000f780090
:1040bc00090037001e007800f200b900800078007b
:1040cc00603421000080400022012000f10f20000c
:1040dc001df507001e0fe8001e007800e90f5000c8
:1040ec00f4ff34000080fa00000006002c00fa00f7
:1040fc00889fbe0050179800b6ff0700e10f5000d4
:10410c00ac003a00403621009040780030c5b30036
:10411c0080cf500015003a005036210090407800b6
:10412c0000c3b30080cf500010003a00603621006d
:10413c009040780070c4b30080cf50000b003a0060
:10414c0070362100104078000004e00007003a00af
:10415c0059ff070080004000c0452100008040004e
:10416c008000eb00010878009200370040362100f7
:10417c009040780030c6b30080cf500045003a0024
:10418c005036210010407800f04f500041003a00aa
:10419c00603621009040780020c4b30080cf5000de
:1041ac003c003a00a0ff0700508088006180880026
:1041bc000000eb00000f7800320037001e00780082
:1041cc00c200dd00c0402100008040001001be0094
:1041dc005080800061808000800f5100818f5900d9
:1041ec0002003a0000000000720037001e00780048
:1041fc00c200dd00c0402100008040001000be0065
:10420c00e00f5000e08f58001d003a0050808000f5
:10421c00618080001e017800c211dd00c2402100c7
:10422c00028141000089be001e0078008000400021
:10423c00c0422100008040008000eb0001087800a3
:10424c001e007800c200dd00c0402100008040004c
:10425c001000be000e81e800809fbe009e1f7800fb
:10426c0020e32800801f780002007800aaf10700e4
:10427c00e88757000e80e8006b0407000801370040
:10428c001e0fe8001e007800e70f5000cbff340033
:10429c0048003700403621009040780040c4b300fd
:1042ac0080cf50001b003a0050362100904078001f
:1042bc0000c3b30080cf500016003a0060362100d6
:1042cc009040780030c5b30080cf500011003a0008
:1042dc00c0022000000f780053ff07007236210047
:1042ec00124178008281fb000e81e800809fbe00a5
:1042fc00831f780010e52800801f780002007800ea
:10430c0085f10700e88757000e80e8004604070097
:10431c0028003700403621009040780030c4b300ac
:10432c0080cf50000d003a005036210090407800ac
:10433c0000c6b30080cf500008003a006036210060
:10434c009040780070c4b30080cf500003003a0056
:10435c0030002000000f7800160037004036210096
:10436c009040780030c4b30080cf50000d003a006c
:10437c00503621009040780000c6b30080cf50002a
:10438c0008003a00603621009040780020c5b30048
:10439c0080cf500003003a0030002000000f78005e
:1043ac000400370070012000000f7800400020004e
:1043bc00000f780007ff0700e20f500049003a0099
:1043cc00403621009040780030c5b30080cf5000bb
:1043dc001d003a00503621009040780000c3b30015
:1043ec0080cf500018003a006036210090407800d1
:1043fc0070c4b30080cf500013003a00aefe07002b
:10440c0031372100914078008180fb000001400091
:10441c00c04521000000410001087800a6fe0700fd
:10442c0080004000c0452100008040001000780052
:10443c000000e0000200320040002000000f780075
:10444c0018ff070027003700403621009040780005
:10445c0030c5b30080cf500022003a005036210006
:10446c009040780010c3b30080cf50001d003a007c
:10447c00603621009040780070c4b30080cf5000ab
:10448c0018003a008cfe070031372100914078006b
:10449c008180fb0000014000c0422100000041006f
:1044ac0001087800e0fe07000004be0082fe070051
:1044bc0080004000c0422100008040009000780045
:1044cc000e80e800889fbe00811f7800b1e62800ae
:1044dc00811f780010f10700e88757000e80e80074
:1044ec00d1030700bbfe0700e30f500040003a0069
:1044fc00403621009040780030c4b30080cf50008b
:10450c0036003a00503621009040780000c6b300c7
:10451c0080cf500031003a00603621009040780086
:10452c0070c4b30080cf50002c003a0062fe07002c
:10453c00000f78001e00780080004000c04221006f
:10454c0000804000100078000000e00008003a00f5
:10455c0070362100104078008080fb001e0078002f
:10456c0000014000c0422100000041000108780019
:10457c0090372100104078000080fb00c800dd005f
:10458c0080372100104078000080fb008100700013
:10459c001e00780000014000c043210000004100d3
:1045ac000108780060382100104078000080fb0082
:1045bc00c800dd0050382100104078000080fb005e
:1045cc00810070001e00780000014000c0442100f2
:1045dc000000410001087800040037004000200072
:1045ec00000f780020022000000f7800adfe0700bd
:1045fc0078fe0700e40f500001003a00a9fe070006
:10460c0074fe0700e50f500001003a00a5fe0700fc
:10461c0070fe0700e60f500001003a00a1fe0700f3
:10462c00780c070021032000810f50001c0034007f
:10463c000000eb00870c07005e109000e20f5000aa
:10464c0011003200e20f500005003c000000e000b9
:10465c0008003200e10f5000090032001000370052
:10466c00e30f50000a003200e40f50000a00320041
:10467c000b0037008bfe07001406070008003700fc
:10468c0088fe07000600370086fe0700040037008e
:10469c0084fe07000200370082fe070000000000c5
:1046ac004f04be000080fa00000006000000fa0073
:1046bc0013d0bf000080fa00000006000000fa00d2
:1046cc0012d0bf000080fa00000006000000fa00c3
:1046dc004006200001002000350c070000000000ff
:1046ec001e0c0700e00f5000e08f5800fcff3a0052
:1046fc0080252000010020002d0c07000000000088
:10470c00160c0700e00f5000e08f5800fcff3a0039
:10471c004ef007008e0807000080fa00000006002b
:10472c000200fa00442ea800440ea800aa050700b7
:10473c00e0012000010020001d0c0700000000001b
:10474c00060c0700e00f5000e08f5800fcff3a0009
:10475c000000eb00000f7800030037003000200051
:10476c0062fe07001e0fe8001e007800e70f5000e5
:10477c00faff340060a0800071a08000e00f5000b0
:10478c00e08f58000c003a0025080700442ea900c1
:10479c00440ea800007d200001002000040c07003e
:1047ac0000000000ed0b0700e00f5000e08f5800f8
:1047bc00fcff3a00dbff37000630ef000000eb0097
:1047cc00000f78000c0037001e007800c200dd00de
:1047dc00c0402100008040001000be00e00f5000df
:1047ec00e08f580003003200308080000000e800a9
:1047fc00308088001e0fe8001e007800e70f500084
:10480c00f1ff3400000000000080fa0000000600f8
:10481c000800fa0020079800310798002e0090003d
:10482c00be0090008bfd0700100798000000eb0005
:10483c00000f7800220037000000eb00000f78001a
:10484c001c0037001e0178002e009000be00900066
:10485c00fc0607004001200001002000d40b0700db
:10486c0000000000bd0b0700e00f5000e08f580067
:10487c00fcff3a00300020001cfe07001e009000d8
:10488c0080004000c04221000080400010007800f1
:10489c000000e000060032001e0090008000400086
:1048ac00c042210000804000100078000c0037004e
:1048bc001e0fe8001e007800e80f5000e1ff3400e6
:1048cc001e00900080004000c0422100008040008b
:1048dc00100078000000e000d7ff32000000eb0071
:1048ec000080fa00000006000200fa000000eb0055
:1048fc00000f78001e0037001e007800c200dd009b
:10490c00c0402100008040001000be00e00f5000ad
:10491c00e08f5800150032001e0078008000400027
:10492c00c042210000804000100178001e00780079
:10493c00c200dd00c0402100008040001000be001d
:10494c001f0607004006200001002000980b0700fe
:10495c0000000000810b0700e00f5000e08f5800b2
:10496c00fcff3a0020002000e0fd07001e0fe800cd
:10497c001e007800e70f5000dfff34000080fa00c3
:10498c00000006000200fa000000eb00000f7800a7
:10499c001e0037001e007800c200dd00c040210060
:1049ac00008040001000be00e00f5000e08f580067
:1049bc00150032001e00780080004000c04221002b
:1049cc0000804000100178001e007800c200dd005d
:1049dc00c0402100008040001000be0030060700df
:1049ec004006200001002000710b070000000000b1
:1049fc005a0b0700e00f5000e08f5800fcff3a0004
:104a0c0020002000b9fd07001e0fe8001e007800f2
:104a1c00e70f5000dfff34000080fa0000000600b2
:104a2c000200fa000000eb00000f780033003700a2
:104a3c001e007800c200dd00c04021000080400054
:104a4c001000be00e00f5000e08f58002a0032002a
:104a5c002830ef001e00780080004000c04221008a
:104a6c0000804000100178001e007800c200dd00bc
:104a7c00c0402100008040001000be0071060700fd
:104a8c00a000200001002000490b070000000000de
:104a9c00320b0700e00f5000e08f5800fcff3a008b
:104aac003000200091fd0700408180000000e000f4
:104abc0011003a0010c0b30008f0b7001e007800d7
:104acc00c200dd00c0402100008140006000b80041
:104adc000089be001e00780080004000c04221000a
:104aec00008040008000eb000108780030808000de
:104afc000000e900308088001e0fe8001e007800de
:104b0c00e70f5000caff34000080fa0000000600d6
:104b1c000200fa000000eb00000f780015003700cf
:104b2c001e007800c200dd00c04021000080400063
:104b3c001000be00e00f5000e08f58000c00320057
:104b4c001e007800c200dd00c04021000080400043
:104b5c001000be002eff0700800078001e007800b9
:104b6c0000014000c0422100000041000108780013
:104b7c001e0fe8001e007800e70f5000e8ff34001d
:104b8c000080fa00000006006600fa000000eb004e
:104b9c00000f7800360037001e007800c200dd00e0
:104bac00c0402100008040001000be00e00f50000b
:104bbc00e08f58002d0032001e007800800040006d
:104bcc00c046210000804000900378001e00780051
:104bdc0080004000c0452100008040001003780098
:104bec001e00780080004000c0442100008040007e
:104bfc00900278001e00780080004000c043210025
:104c0c0000804000100278001e00780080004000f8
:104c1c00c042210000804000900178001e00780006
:104c2c00c200dd00c0402100008040001000be002a
:104c3c000e81e800871f7800861f7800851f78009a
:104c4c00841f7800831f7800809fbe009e1f780011
:104c5c00a0e82800801f7800020078002eef0700e3
:104c6c00f28757000e80e800ef0107001e0fe800e6
:104c7c001e007800e70f5000c7ff34000080fa00d8
:104c8c00000006000200fa000000eb00000f7800a4
:104c9c000d0037001e00780080004000c04321004a
:104cac00008040008000eb00010878001e007800b6
:104cbc0080004000c0442100008040008000eb00d8
:104ccc00010878001e0fe8001e007800e70f500066
:104cdc00f0ff34000080fa00000006000200fa0029
:104cec000000eb00000f78001c0037001e0078005d
:104cfc00c200dd00c0402100008040001000be005a
:104d0c00e00f5000e08f5800130032001e007800b6
:104d1c0080004000c042210000804000100078005c
:104d2c0000407800804178000001eb008000eb002f
:104d3c0000c0eb00e2060700c05d2000010020006f
:104d4c009b0a070000000000840a0700e00f5000d7
:104d5c00e08f5800fcff3a001e0fe8001e007800a0
:104d6c00e70f5000e1ff34000080fa00000006005d
:104d7c000400fa000000eb00000f78000000eb00cc
:104d8c00100798001b0037001e009000c200dd00c9
:104d9c00c0402100008040001000be00e00f500019
:104dac00e08f5800100032001e0090008000400080
:104dbc00c043210000804000900078001e00780065
:104dcc0000804000000f78001e0090008000400022
:104ddc00c044210000804000900078001e00780044
:104dec0000804000000f78001e0090000000e800da
:104dfc00100798001e009000e70f5000e2ff3400ef
:104e0c001e0078000080fa00000006000200fa0084
:104e1c000000eb00000f78001b0037001e0078002c
:104e2c00c200dd00c0402100008040001000be0028
:104e3c00e00f5000e08f5800120032001e00780086
:104e4c0080004000c04321000080400090007800aa
:104e5c00e00f2000808f500008003e001e007800fc
:104e6c0080004000c0442100008040009000780089
:104e7c00e00f2000808f50000200360010c0b300fd
:104e8c00050037001e0fe8001e007800e70f5000e9
:104e9c00e2ff34000040eb000080fa000000060046
:104eac002a00fa000000eb00200798000000eb003d
:104ebc00000f78000b0037001e0078000000400047
:104ecc00660040008080eb00013778001e007800ff
:104edc0000004000780040008080eb000137780033
:104eec001e0fe8001e007800e70f5000f2ff3400a0
:104efc000000eb00000f7800230037001e00780044
:104f0c00c200dd00c0402100008040001000be0047
:104f1c00e00f5000e08f58001a0032001e0078009d
:104f2c0080004000c04221000080400090007800ca
:104f3c00110798001e00780080004000c04321003b
:104f4c000080400010007800800078001e00900067
:104f5c000000400066004000013778001e00780019
:104f6c0080004000c0442100008040001000780008
:104f7c00800078001e009000000040007800400087
:104f8c00013778001e0fe8001e007800e70f500074
:104f9c00daff340050ccb30008ee070000c0eb0081
:104fac0006ee07000000eb00100798002500370004
:104fbc001e00900000004000660040006e0078006b
:104fcc00e10f40001c0032001e0090000000e900c0
:104fdc00000040000000e80020079800f0cbb30070
:104fec00f6ed07002e00900000407800f3ed07006e
:104ffc001e00900000004000660040006e0078002b
:10500c0000407800eded0700f0cbb300ebed0700ae
:10501c002e009000004078000040e800e7ed07000b
:10502c001e00900000004000780040006e007800e8
:10503c0000407800e1ed07001e0090000000e80041
:10504c00100798001e009000e70f5000d8ff3400a6
:10505c000080fa00000006000600fa000000eb00d9
:10506c00200798004d00370010c0b300ae00900030
:10507c00ea8f500001003c000040eb00ae009000b5
:10508c008100e800210798000004e00001003200d4
:10509c000000fe006000b800008fbe00300037003a
:1050ac001e007800c200dd00c040210000804000de
:1050bc001000be00e00f5000e08f580024003200ba
:1050cc001e00780080004000c0432100008040009a
:1050dc00100078000000e00007003a001e00780085
:1050ec0080004000c0442100008040001000780087
:1050fc000000e000160032001e0078008000400026
:10510c00c04221000080400010007800004178006f
:10511c001e007800c200dd00c0402100008040006d
:10512c001000be00ee030700a000200001002000cc
:10513c009f0907000000000088090700e00f5000dd
:10514c00e08f5800fcff3a0040002000e7fb07000e
:10515c0012002000030020001e0f41005e97490042
:10516c001e01be007000200001002000800f5100c5
:10517c00818f5900caff360029fe07004006200027
:10518c00010020008a0907000000000073090700d5
:10519c00e00f5000e08f5800fcff3a00f4fe0700cf
:1051ac000000e000b0ff3c000080fa0000000600a8
:1051bc000200fa00600a2000000f780012d0bf0035
:1051cc000004e00002003a00910220001e8f400013
:1051dc0013d0bf000004e00002003a00910220004e
:1051ec001e8f400014d0bf000004e00002003a0003
:1051fc00910220001e8f400015d0bf000004e0007b
:10520c0002003a00910220001e8f400016d0bf0011
:10521c000004e00002003a00910220001e8f4000c2
:10522c0017d0bf000004e00002003a0091022000f9
:10523c001e8f40001e0078000080fa00000006005f
:10524c000400fa000040eb002047980050ccb3005b
:10525c005aed070000c0eb0058ed0700d0cdb300ad
:10526c0056ed0700e0cbb30054ed07000000eb0057
:10527c00000f78000b0037001e0078008000400003
:10528c00c042210000804000100078000000e000c7
:10529c00030032002e4090000040e80020479800a8
:1052ac001e0fe8001e007800e70f5000f2ff3400dc
:1052bc002e40900041ed07000080fa00000006002f
:1052cc000000fa0050ccb3003ced070000c0eb002e
:1052dc003aed0700d0cdb30038ed0700e0cdb300b8
:1052ec0036ed07000040eb0034ed07000080fa00bb
:1052fc00000006000000fa0050ccb3002fed0700b0
:10530c0000c0eb002ded0700d0cdb3002bed070056
:10531c0000cbb30029ed0700013a80000004200007
:10532c00008060000000e000040032000040eb0050
:10533c0022ed070040c7a90023003700003a800087
:10534c00620060000000e0000400320010c0b300f6
:10535c001aed07004027a9001b003700003a800017
:10536c00700060000000e0000400320020c0b300b8
:10537c0012ed07004087a90013003700013a8000a6
:10538c0000082000008060000000e00004003200f3
:10539c0040c0b30009ed070040e7a9000a00370040
:1053ac00003a8000610060000000e0000400320060
:1053bc0030c0b30001ed07004007a9000200370020
:1053cc0000c0eb00fdec07000080fa0000000600b6
:1053dc000200fa00004f780050ccb300f7ec070045
:1053ec0000c0eb00f5ec0700d0cdb300f3ec0700e8
:1053fc00e0ceb300f1ec07001e407800efec0700a4
:10540c00800c200001002000e908070000000000cb
:10541c00d2080700e00f5000e08f5800fcff3a0064
:10542c000080fa00000006000200fa00000f78006d
:10543c0002d0bf000004e000090032000400370075
:10544c001e007800104078001e0fe800dbec07000f
:10545c001e007800104078000004e000f8ff3a00cd
:10546c000080fa00000006000200fa00004f7800ed
:10547c0002d0bf000004e000020032001e407800a1
:10548c00ceec07000080fa00000006000200fa00d3
:10549c00000f780002d0bf000004e00019003200b9
:1054ac0050ccb300c5ec070000c0eb00c3ec070008
:1054bc00d0cdb300c1ec070000cbb300bfec0700ac
:1054cc00040037001e007800104078001e0fe80022
:1054dc00baec07001e007800104078000004e000d1
:1054ec00f8ff3a00800c200001002000b0080700f3
:1054fc000000000099080700e00f5000e08f5800f2
:10550c00fcff3a000080fa00000006001000fa00d0
:10551c006000b800008fbe000000eb006007980030
:10552c000000eb00200798000000eb0050079800eb
:10553c00ed0907001e2eef002e2eef003e2eef0081
:10554c004e2eef006e2eef007c0807000000eb00e3
:10555c004007980017003700442ea900440ea800fd
:10556c004006200001002000910807000000000008
:10557c007a080700e00f5000e08f5800fcff3a005b
:10558c00442ea800440ea900400620000100200073
:10559c00870807000000000070080700e00f5000ab
:1055ac00e08f5800fcff3a004e0090000000e8002d
:1055bc00400798004e009000f30f5000e6ff3400b7
:1055cc00eff9070056fc070051fd0700edfc070042
:1055dc00a1fe0700c4fc0700a8fa0700442ea9008e
:1055ec00440ea9000000eb00400798000c003700a7
:1055fc000bfd0700a0002000010020006c08070034
:10560c000000000055080700e00f5000e08f580024
:10561c00fcff3a004e0090000000e80040079800a4
:10562c004e009000f30f5000f1ff3400442ea80000
:10563c00440ea80091fa07002eff07000000eb00b3
:10564c003007980050ec280077ff0700fcfe07009d
:10565c000060fe00620037006e4890000080fb0086
:10566c00f1062000810f50003d003200f1062000b1
:10567c00810f500011003c0031062000810f5000ba
:10568c003b00320031062000810f500004003c002a
:10569c00f1032000810f50003d0032004d00370017
:1056ac0041062000810f50002000320081062000ae
:1056bc00810f50001900320046003700110f2000f6
:1056cc00810f500011003200110f2000810f50008b
:1056dc0007003c0021072000810f50000b00320016
:1056ec0031072000810f50002500320039003700af
