:020000040000fa
:080000000002040000000000f2
:020000040000fa
:04000800fa020000f8
:020000040000fa
:04000c0004030000e9
:020000040000fa
:0400100034030000b5
:020000040000fa
:040014000e030000d7
:020000040000fa
:0400180018030000c9
:020000040000fa
:04001c0022030000bb
:020000040000fa
:040020003c0300009d
:020000040000fa
:040024002c030000a9
:020000040000fa
:040028002c030000a5
:020000040000fa
:04002c002c030000a1
:020000040000fa
:040030002c0300009d
:020000040000fa
:04003400c8380000c8
:020000040000fa
:040038003a1a000070
:020000040000fa
:04003c002c03000091
:020000040000fa
:040040002c0300008d
:020000040000fa
:040044002c03000089
:020000040000fa
:040048002c03000085
:020000040000fa
:04004c002c03000081
:020000040000fa
:040050002c0300007d
:020000040000fa
:040054004403000061
:020000040000fa
:04005800740300002d
:020000040000fa
:04005c002c03000071
:020000040000fa
:040060002c0300006d
:020000040000fa
:040064002c03000069
:020000040000fa
:040068002c03000065
:020000040000fa
:04006c002c03000061
:020000040000fa
:040070002c0300005d
:020000040000fa
:040074002c03000059
:020000040000fa
:040078002c03000055
:020000040000fa
:04007c002c03000051
:020000040000fa
:040080002c0300004d
:020000040000fa
:040084002c03000049
:020000040000fa
:04008800f21a000068
:020000040000fa
:04008c002c03000041
:020000040000fa
:040090002c0300003d
:020000040000fa
:040094002c03000039
:020000040000fa
:040098002c03000035
:020000040000fa
:04009c002c03000031
:020000040000fa
:0400a0002c0300002d
:020000040000fa
:0400a4002c03000029
:020000040000fa
:0400a8002c03000025
:020000040000fa
:0400ac002c03000021
:020000040000fa
:0400b0002c0300001d
:020000040000fa
:0400b400281b000005
:020000040000fa
:0400b8002c03000015
:020000040000fa
:0400bc002c03000011
:020000040000fa
:0400c0002c0300000d
:020000040000fa
:0400c4002c03000009
:020000040000fa
:0400c8002c03000005
:020000040000fa
:0400cc002c03000001
:020000040000fa
:0400d0002c030000fd
:020000040000fa
:0400d4002c030000f9
:020000040000fa
:0400d8002c030000f5
:020000040000fa
:0400dc002c030000f1
:020000040000fa
:0400e0002c030000ed
:020000040000fa
:0400e4002c030000e9
:020000040000fa
:0400e8002c030000e5
:020000040000fa
:0400ec002c030000e1
:020000040000fa
:0400f0002c030000dd
:020000040000fa
:0400f4002c030000d9
:020000040000fa
:0400f8002c030000d5
:020000040000fa
:0400fc002c030000d1
:020000040000fa
:040100002c030000cc
:020000040000fa
:040104002c030000c8
:020000040000fa
:040108002c030000c4
:020000040000fa
:04010c002c030000c0
:020000040000fa
:040110002c030000bc
:020000040000fa
:040114002c030000b8
:020000040000fa
:040118002c030000b4
:020000040000fa
:04011c002c030000b0
:020000040000fa
:040120002c030000ac
:020000040000fa
:040124002c030000a8
:020000040000fa
:040128002c030000a4
:020000040000fa
:04012c002c030000a0
:020000040000fa
:040130002c0300009c
:020000040000fa
:040134002c03000098
:020000040000fa
:040138002c03000094
:020000040000fa
:04013c002c03000090
:020000040000fa
:040140002c0300008c
:020000040000fa
:040144002c03000088
:020000040000fa
:040148002c03000084
:020000040000fa
:04014c002c03000080
:020000040000fa
:040150002c0300007c
:020000040000fa
:040154002c03000078
:020000040000fa
:040158002c03000074
:020000040000fa
:04015c002c03000070
:020000040000fa
:040160002c0300006c
:020000040000fa
:040164002c03000068
:020000040000fa
:040168002c03000064
:020000040000fa
:04016c002c03000060
:020000040000fa
:040170002c0300005c
:020000040000fa
:040174002c03000058
:020000040000fa
:040178002c03000054
:020000040000fa
:04017c002c03000050
:020000040000fa
:040180002c0300004c
:020000040000fa
:040184002c03000048
:020000040000fa
:040188002c03000044
:020000040000fa
:04018c002c03000040
:020000040000fa
:040190002c0300003c
:020000040000fa
:040194002c03000038
:020000040000fa
:040198002c03000034
:020000040000fa
:04019c002c03000030
:020000040000fa
:0401a0002c0300002c
:020000040000fa
:0401a4002c03000028
:020000040000fa
:0401a8002c03000024
:020000040000fa
:0401ac002c03000020
:020000040000fa
:0401b0002c0300001c
:020000040000fa
:0401b4002c03000018
:020000040000fa
:0401b8002c03000014
:020000040000fa
:0401bc002c03000010
:020000040000fa
:0401c0002c0300000c
:020000040000fa
:0401c4002c03000008
:020000040000fa
:0401c8002c03000004
:020000040000fa
:0401cc002c03000000
:020000040000fa
:0401d0002c030000fc
:020000040000fa
:0401d4002c030000f8
:020000040000fa
:0401d8002c030000f4
:020000040000fa
:0401dc002c030000f0
:020000040000fa
:0401e0002c030000ec
:020000040000fa
:0401e4002c030000e8
:020000040000fa
:0401e8002c030000e4
:020000040000fa
:0401ec002c030000e0
:020000040000fa
:0401f0002c030000dc
:020000040000fa
:0401f4002c030000d8
:020000040000fa
:0401f8002c030000d4
:020000040000fa
:0401fc002c030000d0
:020000040000fa
:040200002c030000cb
:020000040000fa
:040204002c030000c7
:020000040000fa
:040208002c030000c3
:020000040000fa
:04020c002c030000bf
:020000040000fa
:040210002c030000bb
:020000040000fa
:040214002c030000b7
:020000040000fa
:040218002c030000b3
:020000040000fa
:04021c002c030000af
:020000040000fa
:040220002c030000ab
:020000040000fa
:040224002c030000a7
:020000040000fa
:040228002c030000a3
:020000040000fa
:04022c002c0300009f
:020000040000fa
:040230002c0300009b
:020000040000fa
:040234002c03000097
:020000040000fa
:040238002c03000093
:020000040000fa
:04023c002c0300008f
:020000040000fa
:040240002c0300008b
:020000040000fa
:040244002c03000087
:020000040000fa
:040248002c03000083
:020000040000fa
:04024c002c0300007f
:020000040000fa
:040250002c0300007b
:020000040000fa
:040254002c03000077
:020000040000fa
:040258002c03000073
:020000040000fa
:04025c002c0300006f
:020000040000fa
:040260002c0300006b
:020000040000fa
:040264002c03000067
:020000040000fa
:100400008f4f21000eef27000e0188000000000032
:10041000000020000000e000020032000001200087
:1004200020028800140007003d0107000000e000e2
:1004300003003a004096230001002000020037002c
:100440000000200001002000810f70000100320038
:100450000f000700000020000000e0000200320052
:1004600000000200000000009a27020000000000c7
:100470000040da000000fe00802d20000000e000b7
:1004800002003200002020009001880000000600d9
:10049000a1028800800478000000eb001f003700f4
:1004a000e284440054a0b4009905ba00e2844400f8
:1004b00054a0b4009906ba00e284440054a0b400e9
:1004c0000006eb00476fde00fd07b200ae018800ba
:1004d000636ce10003003a000ad801000000eb0061
:1004e0000e003700606ce10008003a00004deb00a0
:1004f0000a05e800020039003420ec000af0a000f0
:100500008b05e900f9ff3e00040037006168e10057
:10051000010032000086eb000b00070019c7ba008b
:100520001905ba000e04e00003003a000a00e000da
:10053000dbff3a0000000600fe07b200ae028800b2
:100540008a047800f5ff37000cd0a300e20f4d00bd
:100550001c00390089027800354dba000a05e80010
:10056000020039003420ec000af0a0008b05e900fd
:100570000f003200254dba000a05e80002003900dc
:100580003420ec000af0a0008b05e90008003200de
:100590000c00e0000600320015cdba000a05e800a4
:1005a000020039003420ec000af0a0008b05e900bd
:1005b0008984e80054a0b4000b00e000e2ff3a0098
:1005c000000006009902ba00055d78008b05e9007d
:1005d000f7ff3200c82ade00055d78008b05e900d0
:1005e000f3ff32000c00e000f1ff320019ddba0029
:1005f000eeff37000000fa00c028a9000000fe004e
:100600000080fa00004006000000fa00c068a9005f
:100610000000fe000080fa00004006000000fa0022
:10062000c048a9000000fe000080fa00004006005b
:100630000000fa00c088a9000000fe000080fa0057
:10064000004006000000fa00c0a8a9000000fe005b
:100650000080fa00004006000000fa000000fe00e2
:100660000080fa00004006000000fa000000fe00d2
:100670000080fa00004006000000fa000000fe00c2
:100680000080fa00004006003600f800809fbe009f
:10069000829fbe00849fbe00869fbe000200fa00bb
:1006a0003011800000407800004f78008e00780004
:1006b000204b21003f1907000004e00002003a002f
:1006c00040c0b300004f78000168a9000080fa0024
:1006d0004f03be004f02be004f01be004f00be00e0
:1006e0003600f900004006000000fa000188a90069
:1006f0000080fa00004006000000fa00c30320005a
:1007000012c0b300c14b2100204b2100e5180700a7
:1007100021e2a90021a2a9002182a9002162a90049
:1007200001118000f0cf2f000080600000118800d0
:1007300020e2a90020c2a90020a2a9002062a900ed
:100740000111800090ff2f000080600000118800e0
:100750002002a900a00020004011880023e2a90087
:1007600023c2a90023a2a9002362a9002342a90051
:100770002322a9002302a90011118000f0f32f0009
:10078000008060001011880022a2a9002282a90026
:100790002262a9002242a9002222a9002202a90065
:1007a00000402400704288000188a9002188a90027
:1007b0000168a9002168a80021e2a8002342a8003e
:1007c0000080fa00000006000200fa00004f7800e6
:1007d0000000000011118000002020000080600057
:1007e0000000e000fbff3a001e00fb002011880023
:1007f0000080fa00000006000400fa0010079800cc
:100800001e009000104f78001e0090000000e800cd
:10081000100798001e4078000004e000020032003b
:100820001e407800e8ff07001e4078000004e0004a
:10083000f3ff3a000080fa00000006000200fa0010
:10084000000f78009e007800204b21006d180700f3
:100850000080fa00000006000000fa00204b210092
:10086000081807000080fa00000006000a00fa00dd
:10087000e20f50001f003e0080ff8300e10f500098
:10088000060032008023200045232000232320007f
:10089000042320000000e00004003a008022200031
:1008a00045222000232220000422200006002800e8
:1008b0009403630002003a0007087800140a7300ea
:1008c00013a8a30001003a0013a0a00002007800c2
:1008d000050037001388a300feff32003102fb0041
:1008e000840a78000000e9000000e000f9ff3a0007
:1008f0000800370033002000b3bf9f00c0bf9f0037
:10090000d1bf9f00e2bf9f006a80570057030700d6
:100910006fb99700020078000080fa00000006001e
:10092000000005000c00fa00889fbe00000478005b
:10093000f0ff2700d0bf9f008004eb0099bf9f000d
:1009400088bf9f00a8bf9f00200c2000b0bf9f0061
:1009500078815700cfb097007080570010000700d3
:100960000fb89700094878008fb8970008805000aa
:100970004f04be000080fa0000000600d001900085
:10098000028151004240a9000300340010017800a8
:10099000014978000208e800010078000000060024
:1009a000f6874700889fbe008a9fbe008c9fbe00ce
:1009b0008e1f780000057800a1b79f00020778001d
:1009c0008004eb008d023700afb097008100e80093
:1009d000a1b79f0051c2b300814f500003003a00fd
:1009e000afb097000004eb0011003700ba00900090
:1009f0000000fb000168a300070032000901780035
:100a0000800078000a007800dcff07000000e000aa
:100a100005003a00790237008a0078008302070057
:100a2000e10f4000750232008904e80073023700cc
:100a30000100780031417800d3c2b300834f5100e8
:100a40000c00320007003c00edc15100834f510003
:100a50000a003200ebc14100834f51000d003a0003
:100a60000800370003c3b300834f510009003a0068
:100a7000060037000830a000edff37000800a00096
:100a8000ebff37000810a000e9ff37000820a000a6
:100a9000e7ff37000818a300010032000800a1009a
:100aa0000838a300010032000820a1008200fb00ea
:100ab0000103b100e98f50000c003e0000017800f6
:100ac0008000eb00ea08b900b200fb000103b100ae
:100ad00080804000020078009201fb000303b10017
:100ae000e98f5100f7ff3600060037008000eb0069
:100af000a3c2b300834f510002003a00ce00780039
:100b00000000e8008005eb00e2c2b300904f110046
:100b100008003a0008e0a00064415100d04f1100e5
:100b2000020032000001780006003700ce05780090
:100b30000000e8000001780008003700ea58b9001a
:100b40008085410002007800b201fb000303b10080
:100b5000e98f5100f9ff3600f6ff37003240780088
:100b6000a2b79f00c3c6b300834f500025003200d8
:100b70000f003c0032c6b300824f500088003200a4
:100b800004003c000004e000210232006b415100ef
:100b90000f00370042c6b300824f500017003200ea
:100ba00065414100824f500094003a001300370025
:100bb00032c7b300824f50001b00320007003c00d8
:100bc00064415100824f5000100032000241e800a1
:100bd000824f500089003a000f00370052c7b3001f
:100be000824f50008a00320063414100824f500022
:100bf00082003a00e0df9f0009003700e0df9f003d
:100c0000850037000840a000d4ff3700e0df9f00d8
:100c10000860a00080003700e0df9f000850a000bf
:100c20000870a0007c003700e0df9f004e007800d5
:100c3000000678000000e00001003a002c48210086
:100c40000c0178000000eb00010037000000e80014
:100c5000800141001304e000fcff3a0080067800a8
:100c60000b00e000030032008d8f550001003100c1
:100c70008b0678008005eb008d8f50000100360058
:100c80008d855000680464002a003a001100370086
:100c90003a0090000068a3000700320009017800c4
:100ca000010220000a00780034ff07000000e00085
:100cb00006003a00060037008a0078000002200093
:100cc000da010700e10f4000010032008904e8006a
:100cd0008b05e9000b00e000edff3a008085eb009a
:100ce000140037003a0090000068a30009003200a9
:100cf0000c007800b000fb000006780009017800c5
:100d00000a0078001dff07000000e00008003a001c
:100d1000080037008c0078003100fb0001067800e5
:100d20008a007800c1010700e10f40000100320095
:100d30008904e8000d0078008006e9000000e0006a
:100d4000e8ff3a000800e000ac0132001100370073
:100d50003a0090000068a300070032000901780003
:100d6000010220000a00780004ff07000000e000f4
:100d700006003a00060037008a00780000022000d2
:100d8000aa010700e10f4000010032008904e800d9
:100d90008b05e9000b00e000edff3a0097013700fa
:100da0004e017800cf91de00c81ade004818dd0041
:100db0004812de0004027000e4df9f000848a30030
:100dc000080032000404e00006003200e14f420057
:100dd00004003200f4df9f0082e79f002d00200016
:100de00002003700f2df9f001d002000e2fd2f000f
:100df0000f0141000206e80099ff3700e0df9f0085
:100e0000ecfd2f000f0646001d00200094ff370068
:100e1000e0df9f00080cb30008017800020cb2006c
:100e2000700064000200e0000d003a000000e000e5
:100e3000020032004e06be00020037004e06780067
:100e4000cfe6de00e00f5600e08f5e000a003d00b6
:100e50003800b30060061600e0861e00060037006a
:100e60000000e000020032004e06be000200370023
:100e70004e0678008006eb000b00e00005003a000b
:100e80008c8576000bf0a7008b05ea008b05e90046
:100e9000cf5dde0088017800030cb200e3b79f004d
:100ea00000042000808f51002300320003003c002a
:100eb0000300e000080032002d0037000008200089
:100ec0006fb29700800f52000d003200000c20001e
:100ed000800f520026003a00a248210010c0b30043
:100ee00064014100b20f5600a28f5e001f0039005e
:100ef0000040e800ea4f5000f9ff3a001b003700bd
:100f000010c0b3000201200003002000820f560031
:100f1000838f5e0015003900441add00cc11de001d
:100f2000830172004411dd000040e800e84f5000ea
:100f3000f6ff3a000d00370010c0b3008200200019
:100f400003002000820f5600838f5e0007003900e7
:100f5000431add00cd11de00830172004311dd0074
:100f60000040e800eb4f5000f6ff3a00e0df9f0042
:100f70006fd997000200fb008b0f500002003d006c
:100f8000ebdf9f0003003700808f550001003d001c
:100f9000800578000100e000030032006300640077
:100fa000010032008100e90008e8a30005003200da
:100fb0008b8f5000020034008b80500001003700fe
:100fc0008000eb00efd997000300fb000002eb006c
:100fd000d4b79f00808f5000020034000080500082
:100fe000d0b79f000828a3004000320061016400d0
:100ff0000818a3000f0032003a0090000068a30018
:1010000006003200b10220000200e00001003200c0
:101010008180e800090178000d003700b00220004f
:101020000200e000010032000080e8008a00780041
:101030000e0037000200e000100032003a0090007d
:101040000068a300070032000901780001022000b7
:101050000a00780049fe07000000e00006003a00a0
:10106000060037008a00780000022000ef00070029
:10107000e10f4000010032008904e8005fb09700f2
:101080000000e0005a003200bcb79f00cdb79f00bf
:10109000800678003a0090000068a3000700320044
:1010a00009017800010320000a00780033fe0700e0
:1010b0000000e00006003a00060037008a007800d1
:1010c00000032000d9000700e10f400001003200ba
:1010d0008904e8008d06e900eeff3a00ddb79f00c5
:1010e0003fb69700cfb6970041003700dfb19700b9
:1010f0000300e0001a0032000838a30018003a008c
:10110000bcb79f00cdb79f00830678003a009000df
:101110000068a300070032000901780001022000e6
:101120000a00780015fe07000000e00006003a0003
:10113000060037008a00780000022000bb0007008c
:10114000e10f4000010032008904e8008d06e9004b
:10115000eeff3a00ddb79f003fb69700cfb697008d
:10116000610164000818a3000f0032003a009000eb
:101170000068a30006003200b10220000200e00077
:10118000010032008180e800090178000d0037007d
:10119000b00220000200e000010032000080e80000
:1011a0008a0078000e0037000200e00010003200d4
:1011b0003a0090000068a30007003200090178009f
:1011c000010220000a007800ecfd07000000e000aa
:1011d00006003a00060037008a007800000220006e
:1011e00092000700e10f4000010032008904e8008e
:1011f0000b03e900e331b900b2b79f004233dd00d1
:10120000a0482100000343008e01780093b79f009f
:1012100008077800060478005c0037008b05e900b9
:10122000000420006fb29700800f52003800320097
:1012300003003c000400e000080032003e003700dc
:1012400000082000efb09700808f5000200032008f
:10125000000c2000808f500037003a000e48a30099
:10126000100032001802be000401be000c00be00d7
:10127000f4b79f0085bf9f00fe000700e0df9f00de
:101280000000fb00cf80de007fb297008fba97008e
:101290000401be00070107000006560081865e00bb
:1012a0000700370018017800110009000286d800f5
:1012b000a2002000110009000280d800e1df9f0099
:1012c0006fd997000243b000e2df9f001a00370099
:1012d000104721000e58a3000100320000462100f3
:1012e000a1482100810054000c01be008100e900ea
:1012f000030033008301d1000281d300fbff3700dc
:10130000ef00610001004000104078000900370044
:101310000c00be003fb297000402e9000300330056
:101320008100d1000080d300fbff370067406000e0
:101330000043b000e0df9f00ba0090006fd9970033
:101340000200fb000168a3000700320009017800d9
:10135000800078000a00780088fd07000000e000a7
:1013600005003a00050037008a0078002f000700ca
:10137000e10f4000010032008904e8003fb297000d
:1013800063025200b4b79f00640454000b00e000f5
:10139000a2ff3a000e0478001fb797000838a30098
:1013a000160032005fb097000000e0001300340028
:1013b000000478003a0090000068a30007003200a3
:1013c00009017800010220000a0078006bfd070087
:1013d0000000e00006003a00060037008a007800ae
:1013e0000002200011000700e10f40000100320060
:1013f0008904e8000804e900eeff3a00afb0970066
:1014000011407800e0df9f000004e0006efd3a002c
:10141000090078004f0778004f06be004f05be0058
:101420004f04be006f01b10000000600889fbe009f
:1014300001047800b80090008084eb000118a3003c
:101440003a003200180190000198a30002003a000f
:101450000200e00035003a000190a000310498003d
:1014600080047800f90fb2000200e00002003a00a8
:1014700028009000000c7800ea8f540005003a0024
:101480000178a30003003a0088007800d000200013
:10149000e6ff070018009000d8009000810f500070
:1014a0000b0032000000e8001004980018007800db
:1014b00009487800000ce80011c0b30060fe270066
:1014c00001487800ea8f540018003a000500370000
:1014d0008800780009407800250007008004780023
:1014e00012003700380090000088a3000f0032007f
:1014f00018019000a800900048009000dbfc070055
:1015000098009000810f50000400320038009000d5
:101510000003b300300498008084eb000000eb006f
:101520001004980028009000000c78000900780052
:101530004f04be0000000600800178000200370062
:10154000b15978000201e9000200e000fcff3a0016
:101550000000060080017800020037008159780001
:101560000201e9000200e000fcff3a000000060072
:101570000200fa00889fbe00a0ff9f0001047800cf
:10158000380090000068a30033003a00e2006000d9
:1015900005003a000003b3003004980011049800dd
:1015a0000080eb002e003700d80490000900e00016
:1015b00006003a0012002000e68057004800900024
:1015c000aafc07001904980023003700a800900027
:1015d0000100e00008003a0091fe27002104980075
:1015e000010c78002100200051049800110498009b
:1015f0000030a0003004980018019000a80090006e
:101600004800900099fc0700280090008080eb00c3
:1016100011049800aff8970001487800000ce8002a
:101620002ff89700ea4f50000b003a003800900066
:101630000088a3000800320018019000a800900064
:101640004800900089fc07000000eb00100498009f
:10165000a8009000010c7800aff897000100fb0093
:101660004f04be000080fa000000060000c0da004f
:10167000000006006022b800060220000000d00032
:101680008180d2000482d2008582d2000000a000b6
:101690000202520083825a0003003100020242001b
:1016a00083824a000000a1000603e900f3ff3a002c
:1016b00000000600020ab900001bb9000200b800d1
:0c16c00081004200810043000000060091
:020000040000fa
:1016cc0062720000696400006765000074650000c8
:1016dc00636800006e6f00006c6f0000677900009b
:1016ec00000d00000a4c00004f5200004149000060
:1016fc002056000065720000203100002e300000e2
:10170c00210d00000a0000004e6f00002053000065
:10171c00656e0000736f00007273000020440000bf
:10172c0065740000656300007465000064210000ae
:10173c000d0a0000004600006f7500006e6400008a
:10174c002025000064200000536500006e7300002b
:10175c006f720000732100000d0a000000460000ab
:10176c0041250000643a0000494e00002564000049
:10177c003a4f000055540000256400003a54000014
:10178c0058250000640d00000a00000041540000c0
:10179c00453000000a000000415400002b540000aa
:1017ac00585000003d320000300a0000004100009b
:1017bc00542b000054580000445200003d310000ee
:1017cc00300a000000410000542b00004e4900007c
:1017dc003d3100002c250000730a00000041000080
:1017ec00542b00004e4b00003d3100002c25000016
:1017fc00730a000000410000542b0000414300001c
:10180c004b3d0000380a000000410000542b000042
:10181c00504e00003d3000000a0000004154000012
:10182c002b460000534200003d250000640a0000d6
:10183c0000410000542b00004a4f0000494e0000ac
:10184c000a000000415400000a000000415400004e
:10185c00490a000000410000545a00000a00000030
:10186c0041540000563100000a00000041540000b1
:10187c00264600000a0000004154000026570000d4
:10188c000a00000041540000265600000a00000027
:10189c0041540000265300000a000000415400008f
:1018ac00265200000a000000415400002b490000a1
:1018bc00505200000a000000415400002b5300005d
:1018cc004d4f000044450000300a0000004100006c
:1018dc00542b00004c4f0000473000000a00000061
:1018ec00415400002b46000052450000510a0000f4
:1018fc0000410000542b000046530000420a000037
:10190c0000410000542b0000504e0000300a000033
:10191c0000410000542b0000444900000a00000064
:10192c00415400002b4e0000410a00000041000011
:10193c00542b00004e5300004b0a000000410000e5
:10194c00542b0000445300004b0a000000410000df
:10195c00542b00004e4b00000a00000041540000c4
:10196c002b4e0000490a000000410000542b0000df
:10197c004a5200000a000000415400002b4a0000ab
:10198c00424f00000a000000415400002b4e0000a2
:10199c004a4d00000a000000415400002b4e00008c
:1019ac004a5300000a000000415400002b4e000076
:1019bc004c4300000a000000415400002b4c000076
:1019cc00434300000a000000415400002b4c00006f
:1019dc00435400000a000000415400002b45000055
:1019ec004e4300000a000000415400002b5200003e
:1019fc0053530000490a000000410000542b000022
:101a0c00534e0000520a000000410000542b00000d
:101a1c00445000000a000000415400002b5000000c
:101a2c00494e0000470a000000410000542b000002
:101a3c0054580000445200000a00000041540000b9
:101a4c002b540000585000000a00000041540000c4
:101a5c002b5400005846000020390000313500009e
:101a6c000a000000415400002b54000058460000ae
:101a7c0020380000363800000a00000041540000f5
:101a8c002b54000058430000480a0000004100009d
:101a9c00542b0000544f0000410a0000004100008c
:101aac00542b000054580000490a0000004100006b
:101abc00542b000054580000573100000a0000005d
:101acc00415400002b46000053420000203100001e
:101adc000a000000415400002b5200005844000042
:101aec00520a000000410000542b00005258000024
:101afc00460a000000410000542b00005258000020
:101b0c00490a000000410000542b0000464500002b
:101b1c00430a000000410000542b00004352000017
:101b2c00430a000000410000542b00004144000017
:101b3c00523100000a000000415400002b4100000b
:101b4c00434b00000a000000415400002b530000de
:101b5c00454e0000440a000000410000542b0000d8
:101b6c00534500004e440000420a000000410000b2
:101b7c00542b0000534500004e440000480a00005e
:101b8c0000410000542b0000534500004e4400005f
:101b9c00490a000000410000542b0000524500008f
:101bac00435600000a000000415400002b52000074
:101bbc0045430000564300000a0000004154000059
:101bcc002b540000584e00000a0000004154000045
:101bdc002b520000584f00000a0000004154000036
:101bec002b530000440a000000410000542b00005d
:101bfc00534c000045450000500a00000041000015
:101c0c00542b0000574d00000a0000004154000006
:101c1c002b570000490a000000410000542b000023
:101c2c00574400000a000000415400002b570000ec
:101c3c00544f00000a0000004c6f00007374000049
:101c4c0020530000656e0000736f000072000000ee
:101c5c0036200000686f00007572000020740000d0
:101c6c00696d0000656f00007574000000000000d5
:020000040000fa
:101c7c000000fa0040c6b30026f0b70026d0bf0023
:101c8c000080fa00000006000000fa000164a900c0
:101c9c0081208000000c2000010070008020880052
:101cac008120800000fc2f00008060007000b300d9
:101cbc0080208800912080008003200001007000ab
:101ccc009020880012e4a80091208000f08f2f0053
:101cdc00808060000050200001007000902088007f
:101cec009120800080ff2f00008060000020a00069
:101cfc009020880012c4a8000080fa0000000600a2
:101d0c000000fa0000022000c0028800d8ff070083
:101d1c008302200022c1b30041062100a00521004e
:101d2c005d13070001208000f08f2f000080600001
:101d3c0000a0a0000020880000000000012080000e
:101d4c00000e20008080600000082000808f500072
:101d5c00faff3a00ccff070026d0bf000001fb00c1
:101d6c00cf91de008002eb00140020001100200057
:101d7c00100020006f0207000004a8001404a80043
:101d8c001424a8001444a8001464a8001484a80007
:101d9c0014a4a80014c4a8000121800000ff2f0087
:101dac00008060000000a00000218800012180005c
:101dbc00f0f02f00008060000050a000002188008f
:101dcc0001218000f00f2f00808060000030200087
:101ddc00010070000021880001218000f0ff20002c
:101dec000080600000e0a00000218800112180002c
:101dfc0000ff2f00008060005000b300102188000d
:101e0c0011218000f0f02f0080806000000620007f
:101e1c00010070001021880011218000f00f2f00ac
:101e2c00808060000070200001007000102188008c
:101e3c0026d0bf000000fb00f17f200001006000f5
:101e4c004500dd0001228000ff8060000100700071
:101e5c000022880026d0bf000000fb00f17f20008c
:101e6c00010060004500dd0021228000ff80600041
:101e7c00010070002022880026d0bf000000fb006b
:101e8c00f17f2000010060004500dd004122800050
:101e9c00ff806000010070004022880026d0bf0047
:101eac000000fb00f17f2000010060004500dd0018
:101ebc0061228000ff8060000100700060228800b9
:101ecc0026d0bf000000fb00f17f20000100600065
:101edc004500dd0081228000ff8060000100700061
:101eec008022880026d0bf000000fb00f17f20007c
:101efc00010060004500dd00a1228000ff80600031
:101f0c0001007000a022880026d0bf000000fb005a
:101f1c00f17f2000010060004500dd00c12280003f
:101f2c00ff80600001007000c0228800c12080008a
:101f3c00c0ff2f0000806000c0208800c1208000fe
:101f4c0030ff2f0000806000c0208800c12080007e
:101f5c00f0fc2f0000806000c0208800c1208000b1
:101f6c00f0f32f0000806000c0208800c1208000aa
:101f7c00f0cf2f0000806000c0208800c1208000be
:101f8c00f03f2f0000806000c0208800c12080003e
:101f9c00f0ff2c0000806000c020880080218000b1
:101fac007f006000802188003064a90081218000be
:101fbc00c0ff2f000080600080218800312080004d
:101fcc00f0ff2100808060000000260001007000fe
:101fdc00302088003120800000fe2f00008060003f
:101fec00302088000004a90030e4a80031e4a900e6
:101ffc0032e4a90033e4a90034e4a90035e4a900d3
:10200c0036e4a90037e4a900802180003000b30039
:10201c008021880081218000f0cf2f00008060009b
:10202c000090a0008021880001208000f08f2f00fc
:10203c00008060000020880000000000012080006b
:10204c00000e2000008060000000e000fbff3a0062
:10205c00c5040700d70407000080fa000000060042
:10206c000000fa000002eb008000eb00f2ff2f00f2
:10207c00e3ff21000000eb000103070045442400ae
:10208c00343323002322220012112100810020006e
:10209c000000eb00fd0307000080fa0000000600c2
:1020ac003200fa00889fbe008a9fbe008c9fbe0043
:1020bc00400f98000000eb00000f78000000eb00d0
:1020cc001007980066004700220120008000eb00fa
:1020dc001dfd070008f02700090020004e089000a5
:1020ec004400dd008000eb00808fd2008180d200a4
:1020fc000000780000f0a1000801d0008001d000a1
:10210c00030041004220a80081804c004200a9003d
:10211c004220ae004200a8000080d3009301800052
:10212c000101780092018800000000000000780096
:10213c001000780020079800930188000000000030
:10214c002e009000610f60002e0090006200600075
:10215c00100798001e0078000000e0002a003a00ea
:10216c000af027000b0020004e0890004400dd0010
:10217c008000eb00808fd2008180d20000007800bc
:10218c0000f0a1000a02d0008002d000050042003d
:10219c004220a80081804d004200a9004220ae00e0
:1021ac004200a8000080d3009201800081017800d9
:1021bc009301880000000000000078009000780077
:1021cc009201880000000000c0ff21000080600028
:1021dc004200de008000eb00500798006107980079
:1021ec00ae009000c0ff2100008060004200de00c5
:1021fc008000eb00500798006107980040c0b300c6
:10220c00004f9800670037002e0090008000eb0014
:10221c00c2ff210003002000800278000102780038
:10222c008200780003007800818262000000620066
:10223c008000eb00c000dd00000020000001be00ab
:10224c006128b8000001710081817100c010dd00af
:10225c000000200050079800610798005e02900073
:10226c00ee0290000cf027000d0020004e089000ac
:10227c004400dd008000eb0062004000e08048007c
:10228c00000078008000eb00808fd2008180d200ab
:10229c000000780000f0a1000c03d0008003d000f7
:1022ac00070043004220a80081804e004200a90094
:1022bc004220ae004200a8000080d30093018000b1
:1022cc0001017800920188000000000000007800f5
:1022dc001000780093018800000000004600dd002b
:1022ec008000eb00040040008580480050079800f7
:1022fc00610798005e029000ee02900001f027004a
:10230c00510f980002002000620f98004e089000b8
:10231c004400dd008000eb0064004000e0804800d9
:10232c00000078008000eb00808fd2008180d2000a
:10233c000000780000f0a1005e0b9000ee0b900006
:10234c000601d0008001d000030041004220a8000b
:10235c0081804b004200a9004220ae004200a80040
:10236c000080d30093018000010178009201880065
:10237c000000000000007800100078009301880035
:10238c00000000004a00de008000eb00040040006a
:10239c0085804800500798006107980030c0b30052
:1023ac00004f98001e009000e10f500003003a000f
:1023bc0020c0b30070479800cf00370010c0b300a6
:1023cc007047980004f02700740f98000500200057
:1023dc00051798004e0890004400dd008000eb00cb
:1023ec0066004000e0804800000078008000eb00b0
:1023fc00808fd2008180d2000000780000f0a10014
:10240c007e0b90008e1390000601d0008001d0004e
:10241c00030041004220a80081804b004200a9002b
:10242c004220ae004200a8000080d3009201800040
:10243c008101780093018800000000000000780002
:10244c00100078002007980092018800000000001e
:10245c002e00900000407800604f98002e009000f5
:10246c004800de0000407800704f980004f0270010
:10247c001417980005002000251798004e089000ae
:10248c004400dd008000eb0068004000e080480064
:10249c00000078008000eb00808fd2008180d20099
:1024ac000000780000f0a1001e139000ae13900005
:1024bc000601d0008001d000030041004220a8009a
:1024cc0081804b004200a9004220ae004200a800cf
:1024dc000080d30092018000810178009301880074
:1024ec000000000000007800100078002007980021
:1024fc0092018800000000002e009000004078003f
:10250c00005798002e0090004800de000040780034
:10251c001057980004f0270034179800050020008d
:10252c00451798004e0890004400dd008000eb0039
:10253c006a004000e0804800000078008000eb005a
:10254c00808fd2008180d2000000780000f0a100c2
:10255c003e139000ce1390000601d0008001d000f5
:10256c00030041004220a80081804b004200a900da
:10257c004220ae004200a8000080d30092018000ef
:10258c0081017800930188000000000000007800b1
:10259c0010007800200798009201880000000000cd
:1025ac002e00900000407800205798002e009000dc
:1025bc004800de00004078003057980004f02700f7
:1025cc005417980005002000651798004e089000dd
:1025dc004400dd008000eb006c004000e08048000f
:1025ec00000078008000eb00808fd2008180d20048
:1025fc000000780000f0a1005e139000ee13900034
:10260c000601d0008001d000030041004220a80048
:10261c0081804b004200a9004220ae004200a8007d
:10262c000080d30092018000810178009301880022
:10263c0000000000000078001000780020079800cf
:10264c0092018800000000002e00900000407800ed
:10265c00405798002e0090004800de0000407800a3
:10266c005057980004f027007417980005002000bc
:10267c00051f98004e0890004400dd008000eb0020
:10268c0064004000e0804800000078008000eb000f
:10269c00808fd2008180d2000000780000f0a10071
:1026ac007e1390008e1b90000601d0008001d0009c
:1026bc00030041004220a80081804b004200a90089
:1026cc004220ae004200a8000080d300920180009e
:1026dc008101780093018800000000000000780060
:1026ec001000780092018800000000000040780083
:1026fc006f406000605798006600470080007800cb
:10270c00a0052100281107000004e00004003a0095
:10271c0010c0b30024f0b70040012000591307008b
:10272c004f06be004f05be004f04be000080fa00ed
:10273c00000006002000fa00200f9800320f9800cd
:10274c00430f9800510f9800640f9800750f980074
:10275c006000b800008fbe006000b8002007980031
:10276c00310798006000b8004007980051079800a6
:10277c000004a8002e08900000004000000040005b
:10278c008000780000442000008040006007980022
:10279c002e0890004280de0000004000800078008f
:1027ac000042200000804000700798002e08900026
:1027bc004380de0000004000800078008041200053
:1027cc0000804000000f980040412000100f98003e
:1027dc005e089000e10f500049003a003e0990005d
:1027ec00ce099000f0ff2f000100200002027800bb
:1027fc000301780080017800010078000302620078
:10280c00000061008000eb00c000dd000000200033
:10281c000001be006120b8000001710081817100cf
:10282c0022079800330798003e089000ce089000cd
:10283c004088de00cf80de000001be0030002000aa
:10284c00010020000202780003017800800178006a
:10285c000100780003026200000061008000eb00c0
:10286c00c000dd00000020000001be006120b800a7
:10287c000001710081817100420798005307980094
:10288c003e089000ce0890004288de00cf80de002b
:10289c000001be00f07f2000010020000202780041
:1028ac0083017800000178000100780002016200c9
:1028bc00008061008000eb00c000dd000000200003
:1028cc00008fbe006110b8001e1f70001e977000b4
:1028dc001e007800c500dd004e0090000080400016
:1028ec00e80040006e009000010878006e00900037
:1028fc000080e800ae009000010878001900370055
:10290c003e099000ce099000f07f200001002000cd
:10291c000202780083017800000178000100780041
:10292c0002016200008061008000eb00c000dd004d
:10293c0000002000008fbe006110b8001e1f700048
:10294c001e9770001e007800c500dd006e00900020
:10295c00010878006e0090000080e8008000eb0019
:10296c00010878007e009000900078002e089000fe
:10297c00630060004200dd00f20020000010dd006a
:10298c000080ea00808060007e00900001087800e2
:10299c002e089000630060004200dd00ee089000fd
:1029ac008008dd007e00900010007800810070002f
:1029bc007e009000010878000e08900090007800ce
:1029cc002e089000670060000000400032002000dc
:1029dc000010dd000080ea00808060000e0890008e
:1029ec00010878002e08900067006000000040008d
:1029fc00fe0890008008dd000e08900010007800a2
:102a0c00810070000e089000010878001100200071
:102a1c002e0890000008dd00800078001e08900051
:102a2c0010007800810070001e08900001087800ea
:102a3c000004a9000080fa00000006001800fa004b
:102a4c0070079800020f9800130f9800210f980040
:102a5c00340f98006000b800008fbe006000b80012
:102a6c0020079800310798006000b80040079800d4
:102a7c00510798000004a8007e0090000000400060
:102a8c0000004000800078000043200000804000df
:102a9c00600798003e089000e10f500053003a0088
:102aac000e0990009e099000f0ff2f0001002000fd
:102abc0002027800030178008001780001007800a0
:102acc0003026200000061008000eb00c000dd002a
:102adc00000020000001be006120b8000001710060
:102aec008181710022079800330798000e0890002e
:102afc009e0890004088de00cf80de000001be0002
:102b0c003000200001002000020278000301780050
:102b1c00800178000100780003026200000061006f
:102b2c008000eb00c000dd00000020000001be00b2
:102b3c006120b8000001710081817100420798008a
:102b4c00530798000e0890009e0890004288de0003
:102b5c00cf80de000001be00f07f200001002000cd
:102b6c0002027800830178000001780001007800ef
:102b7c0002016200008061008000eb00c000dd00fb
:102b8c0000002000008fbe006110b8001e1f7000f6
:102b9c001e9770002e089000e10f500008003a00bc
:102bac001e007800c500dd004e0090000080400043
:102bbc00e80040006e009000010878000600370025
:102bcc001e007800c500dd004e00900080804000a3
:102bdc006e009000010878006e0090000080e80004
:102bec00ae00900001087800220037000e0990001a
:102bfc009e099000f07f2000010020000202780066
:102c0c008301780000017800010078000201620065
:102c1c00008061008000eb00c000dd00000020009f
:102c2c00008fbe006110b8001e1f70001e97700050
:102c3c002e089000e10f500006003a001e007800ac
:102c4c004500dd00e80040006e00900001087800af
:102c5c00040037001e007800c500dd006e009000f7
:102c6c00010878006e0090000080e8008000eb0006
:102c7c00010878000004a9000080fa00000006009a
:102c8c002200fa00889fbe008a9fbe008c9fbe0067
:102c9c00400f9800520f9800630f9800710f980026
:102cac00041798006000b800008fbe006000b800e8
:102cbc0020079800310798006000b8004007980082
:102ccc00510798006000b8006007980071079800e1
:102cdc006000b800000f9800110f98006000b80059
:102cec00200f9800310f98007e0890000000e00043
:102cfc00460032005e099000ee099000f0032000bf
:102d0c0001002000020278000301780080017800a5
:102d1c000100780003026200000061008000eb00fb
:102d2c00c000dd00000020000001be006120b800e2
:102d3c000001710081817100020f9800130f98003f
:102d4c005e089000ee0890004a09dd004600de00a7
:102d5c0000007100c688de000001be00f0ff2000fc
:102d6c000100200002027800030178008001780045
:102d7c000100780003026200000061008000eb009b
:102d8c00c000dd00000020000001be006120b80082
:102d9c000001710081817100220f9800330f98009f
:102dac005e089000ee0890004288de00cf80de00c6
:102dbc000001be00f07f200001002000020278001c
:102dcc0003017800800178000100780003026200a2
:102ddc00000061008000eb00c000dd00000020005e
:102dec000001be006120b8000001710081817100fa
:102dfc0062079800730798002e099000be09900096
:102e0c002207980033079800130037005e099000e2
:102e1c00ee099000f07f20000100200002027800f3
:102e2c000301780080017800010078000302620041
:102e3c00000061008000eb00c000dd0000002000fd
:102e4c000001be006120b800000171008181710099
:102e5c0062079800730798000e109000e10f500065
:102e6c0017003a006e009000fe0090004209dd0051
:102e7c00ce01de00830171004201dd007e0890006e
:102e8c008000eb0000007100818071000001be0029
:102e9c000210a000028fbe000e0990009e09900047
:102eac004a18dd00c610de00810070004a10dd00fb
:102ebc000090a000400798005107980012003700be
:102ecc006e009000fe0090004209dd00ce01de0095
:102edc00830171004201dd007e0890008000eb0050
:102eec00001f7100019771000e0990009e0990005f
:102efc004a18dd00c610de00810070004a10dd00ab
:102f0c0040079800510798007e0890000000e000f0
:102f1c00180032001e007800800178000310a00019
:102f2c004e0890004400dd006100b8000cf0270052
:102f3c000d0020000002d0000c01d0000200420065
:102f4c004220a8008d8048004200a9004220ae001b
:102f5c004200a8000080d300a2018000010278008a
:102f6c0000007800a401880003087800a201880002
:102f7c00150037009e0178004e0890004400dd00db
:102f8c006100b8000af027000b0020000002d000fe
:102f9c000a01d000020042004220a8008b804800a9
:102fac004200a9004220ae004200a8000080d300dd
:102fbc00a20180000102780000007800a4018800c2
:102fcc0003087800a2018800ae0190004e08900022
:102fdc004400dd000080e8006100b80008f0270024
:102fec00090020000002d0000801d00002004200bd
:102ffc004220a800898048004200a9004220ae006f
:10300c004200a8000080d300a201800001027800d9
:10301c0000007800a401880003087800a201880051
:10302c00ce0190004e0890004400dd00640040008a
:10303c006100b80006f02700070020000002d00055
:10304c000601d000020042004220a8008780480000
:10305c004200a9004220ae004200a8000080d3002c
:10306c00a20180000102780000007800a401880011
:10307c0003087800a20188004f06be004f05be0071
:10308c004f04be000080fa00000006001400fa0095
:10309c00889fbe008a9fbe008c9fbe00000f7800e8
:1030ac0011079800220798003307980044079800ee
:1030bc005507980001f027006107980002002000d6
:1030cc00720798001e0078004400dd008000eb00c1
:1030dc0064004000e0804800000078008000eb00b5
:1030ec00808fd2008180d2000000780000f0a10017
:1030fc006e029000fe0290000403d0000001d0008c
:10310c00020043004220a80081804a004200a9002e
:10311c004220ae004200a8000080d3009201800043
:10312c008101780093018800000000000000780005
:10313c0090007800920188000000000000ff2f0032
:10314c00808060001e009000808140001e0078008e
:10315c004400dd00640040006100b80004f027006a
:10316c00040f980005002000150f98000e0a90001f
:10317c009e0a90000003d0000401d000020043001e
:10318c004220a800858048004200a9004220ae00e1
:10319c004200a8000080d300a20180000102780048
:1031ac0000007800a401880003087800a2018800c0
:1031bc001e0078004400dd00660040006100b8008d
:1031cc000cf027000d0020008001d0000c02d00074
:1031dc00048041004220a8008d8048004200a900d4
:1031ec004220ae004200a8000080d300ae01900047
:1031fc00a20180000102780000007800a401880080
:10320c0003087800a20188001e0078004400dd004d
:10321c00680040006100b8000af027000b00200095
:10322c008002d0000a03d000068042004220a80091
:10323c008b8048004200a9004220ae004200a8004a
:10324c000080d300be019000a20180000102780032
:10325c0000007800a401880003087800a20188000f
:10326c001e0078004400dd006a0040006100b800d8
:10327c0008f02700090020000001d0008801d000d0
:10328c00030041004220a800898048004200a900a8
:10329c004220ae004200a8000080d300ce01900076
:1032ac00a20180000102780000007800a4018800cf
:1032bc0003087800a20188001e0078004400dd009d
:1032cc006c0040006100b80006f0270007002000e9
:1032dc000002d0008602d000050042004220a80067
:1032ec00878048004200a9004220ae004200a8009e
:1032fc000080d300de019000a20180000102780062
:10330c0000007800a401880003087800a20188005e
:10331c004f06be004f05be004f04be000080fa00f1
:10332c00000006000400fa00100798000004a80032
:10333c0040412000000f78001e00780090007800bb
:10334c00120020001e0090000010dd000080ea003a
:10335c00808060001e007800010878000004a9003d
:10336c000080fa00000006000000fa00f02bef00cd
:10337c00f22bef00000222000058880020442000ad
:10338c00605888007000200070588800600420008d
:10339c0010588800000020003058880000f02700ea
:1033ac002058880001eba8002088a8000080fa00b3
:1033bc00000006000000fa00f02bef00f22bef00eb
:1033cc0001598000f0fc2f00008060000050a0002c
:1033dc000059880001598000c0ff2f000080600058
:1033ec0000598800004420006059880000f0270034
:1033fc0020598800000020003059880070002000ff
:10340c007059880020022000105988002308a80059
:10341c0021eba8000080fa00000006000000fa0072
:10342c0027d0bf000004e0000500320027d0bf0009
:10343c000040e90027f0b70010c0b30001003700ce
:10344c000040eb000080fa00000006000200fa00c9
:10345c00000f78009e007800a0052100660d070083
:10346c000080fa00000006003200f8003400f8007a
:10347c00881f780018002000a80188000820200070
:10348c0098018800000000004f0478000000fa004a
:10349c000088a9000080fa003400f9003200f9001d
:1034ac00004006000000fa000004a9000021800082
:1034bc00620060000000e0000600320027d0bf0070
:1034cc000040e80027f0b70010002000f4fa0700d5
:1034dc002024a90000218000640060000000e000ae
:1034ec000600320027d0bf000040e80027f0b700ec
:1034fc0020002000eafa07002044a90000218000e7
:10350c00680060000000e0000600320027d0bf0019
:10351c000040e80027f0b70030002000e0fa070078
:10352c002064a90000218000700060000000e00011
:10353c000600320027d0bf000040e80027f0b7009b
:10354c0040002000d6fa07002084a9000121800049
:10355c0000022000008060000000e0000600320045
:10356c0027d0bf000040e80027f0b7005000200033
:10357c00cbfa070020a4a900012180000004200040
:10358c00008060000000e0000600320027d0bf0081
:10359c000040e80027f0b70060002000c0fa0700e8
:1035ac0020c4a900012180000008200000806000d8
:1035bc000000e0000600320027d0bf000040e80009
:1035cc0027f0b70070002000b5fa070020e4a9002e
:1035dc000080fa00000006003600f800809fbe0054
:1035ec00829fbe00849fbe00869fbe003200f80002
:1035fc003400f80010002000a001880000202000fa
:10360c0090018800000000000000fa0000218000fa
:10361c000000e00001003200a2ff07000308a9002f
:10362c000080fa003400f9003200f9004f03be00ac
:10363c004f02be004f01be004f00be003600f90025
:10364c0000400600801f78000000fa000468a90002
:10365c0050208000610060000000e000010032009a
:10366c000a04a90050208000620060000000e00005
:10367c00010032000a24a9000080fa004f007800f3
:10368c00004006000400fa00000f780011079800b3
:10369c001e0078006101b9000002eb008000eb0015
:1036ac000000eb0076fd07001e0090008002eb008e
:1036bc000002eb008001eb000001780021002000eb
:1036cc000000eb0071fe07000080fa00000006000d
:1036dc000a00fa0040079800508180000000e800c2
:1036ec00508188004e009000b000900020009000a7
:1036fc00008fbe004e00900068004000200798002c
:10370c004e009000005090000080fb0030079800a5
:10371c00be0190002e0190001e00be000c000700a0
:10372c000080fa00000006000000fa0080218000f2
:10373c006800600000f0a7000000ea000000e9004b
:10374c004f00de00004078000080fa000000060008
:10375c001400fa006007980071079800020f980097
:10376c00130f98000000eb00000f78000000eb0036
:10377c00100798000000eb00200798000000eb00f9
:10378c00300798006000b800400798005107980077
:10379c001700370014c0b3004e019000de019000fa
:1037ac00f069280011002000800f5100818f590012
:1037bc0001003e000042eb004e009000de00900045
:1037cc0061004000e08048004007980051079800d5
:1037dc000404e0000400320080218000500120002d
:1037ec00280f07006b0037000000eb00000f78007b
:1037fc0080218000680060000000e000e5ff3a00d6
:10380c00608180000002eb00110020006e0190002e
:10381c00fe0190001afd07001e0890000000e00059
:10382c00060034000e089000104078008000fb0069
:10383c00f00f2000008060001e0f70001e0890002a
:10384c00e10f5000060034000e0890000000e80064
:10385c00104078000000fb004800dd001e0f7000d7
:10386c001e089000e20f5000090034000e08900072
:10387c000080e800104078008000fb00f00f200072
:10388c00008060009e0090000100700010079800fe
:10389c001e089000e30f5000080034000e08900042
:1038ac0063004000104078000000fb004800dd0081
:1038bc009e00900001007000100798001e089000f8
:1038cc00e40f5000090034000e0890006400400022
:1038dc00104078008000fb00f00f2000008060009a
:1038ec00ae00900001007000200798001e089000a8
:1038fc00e50f5000080034000e08900065004000f1
:10390c00104078000000fb004800dd00ae00900085
:10391c0001007000200798001e089000e60f500070
:10392c00090034000e08900066004000104078003a
:10393c008000fb00f00f200000806000be009000b3
:10394c0001007000300798001e089000e70f50002f
:10395c00080034000e08900067004000104078000a
:10396c000000fb004800dd00be009000010070006c
:10397c00300798009e08900060818000be02900085
:10398c002e0290009e0190001e017800bffd0700e2
:10399c003064a8000080fa00000006000200fa0063
:1039ac000630ef000870ef000970ef000a30ef00ee
:1039bc000c30ef000000eb00000f78002500370002
:1039cc001e007800c200dd00c040210000814000d4
:1039dc006000b8000089be001e0078008000400026
:1039ec0040422100008040008000eb00010878007c
:1039fc001e00780080004000004321000080400041
:103a0c008000eb00010878001e0078008000400068
:103a1c00c0432100008040008000eb0001087800ca
:103a2c001e0078008000400080442100008040008f
:103a3c008000eb00010878001e0078008000400038
:103a4c0040452100008040008000eb000108780018
:103a5c001e0fe8001e007800e50f5000d8ff340060
:103a6c000080fa00000006000600fa00100798001b
:103a7c00210798000000eb00000f78000d003700c4
:103a8c001e007800c200dd00c04021000080400014
:103a9c001001be001e009000ae009000800f51007f
:103aac00818f590002003a001e0078000500370093
:103abc001e0fe8001e007800e50f5000f0ff3400e8
:103acc000000eb000080fa00000006000600fa007f
:103adc004400070010079800210798000000eb0035
:103aec00000f78000d0037001e007800c200dd00ca
:103afc00c0402100008040001001be001e0090005c
:103b0c00ae009000800f5100818f590002003a00e6
:103b1c001e007800050037001e0fe8001e0078001c
:103b2c00e50f5000f0ff34000000eb000080fa00bd
:103b3c00000006000200fa000000eb00000f780005
:103b4c000ef097000080fb00000f78001e0078003c
:103b5c00e90f50000a003c001e007800f200b9008a
:103b6c00800078006034210000804000f80057008d
:103b7c00220120006df607001e00780002003700bd
:103b8c00370007000000eb000080fa000000060080
:103b9c000000fa0021fe07000004e0000e003200d5
:103bac00408180000000e800408188004033210003
:103bbc0026fe0700f2874700728057004133210030
:103bcc0008000900311878002001b100d9ff070066
:103bdc00f2875700010037000000eb000080fa006c
:103bec00000006000000fa00e29a8000f39a8000c0
:103bfc00f0ff2f00f1002000020278000301780092
:103c0c00800178000100780003026200000061006e
:103c1c008000eb00c000dd00000020000001be00b1
:103c2c006120b80000017100818171000200be00aa
:103c3c000080fa00000006000000fa0002003700c5
:103c4c004033210001fe0700f4fd07000004e000f2
:103c5c00fbff3a00020007000080fa00000006009b
:103c6c000200fa000000eb00000f7800090037009a
:103c7c001e007800f200b90080007800603421004a
:103c8c000080400022012000f10f20002ef60700da
:103c9c001e0fe8001e007800e90f5000f4ff3400fe
:103cac000080fa00000006000400fa0010079800db
:103cbc00b7ff0700e10f50008c003a00403621009e
:103ccc009040780030c5b30080cf500015003a000a
:103cdc00503621009040780000c3b30080cf5000d4
:103cec0010003a00603621009040780070c4b30098
:103cfc0080cf50000b003a00703621001040780045
:103d0c000004e00007003a0070ff0700800040004c
:103d1c0080442100008040008000eb000108780006
:103d2c0072003700403621009040780030c6b30056
:103d3c0080cf500036003a005036210010407800f9
:103d4c00f04f500032003a0060362100904078006d
:103d5c0020c4b30080cf50002d003a00a1ff070013
:103d6c0050808800618088000000eb00000f780014
:103d7c00230037001e007800c200dd00c040210087
:103d8c00008040001001be005080800061808000e7
:103d9c00800f5100818f590002003a000000000092
:103dac00520037001e007800c200dd00c040210028
:103dbc00008040001000be00e00f5000e08f580063
:103dcc000e003a0050808000618080001e01780057
:103ddc00c211dd00c2402100028141000089be00f9
:103dec001e0078008000400040422100008040000e
:103dfc008000eb0001087800e70037001e0fe80098
:103e0c001e007800e50f5000daff34003700370051
:103e1c00403621009040780040c4b30080cf500061
:103e2c000a003a00503621009040780000c3b300dd
:103e3c0080cf500005003a00603621009040780099
:103e4c0030c5b30080cf500028003200403621002e
:103e5c009040780030c4b30080cf50000d003a0081
:103e6c00503621009040780000c6b30080cf50003f
:103e7c0008003a00603621009040780070c4b3000e
:103e8c0080cf500003003a0030002000000f780073
:103e9c0016003700403621009040780030c4b30043
:103eac0080cf50000d003a00503621009040780031
:103ebc0000c6b30080cf500008003a0060362100e5
:103ecc009040780020c5b30080cf500003003a002a
:103edc0030002000000f7800040037007001200033
:103eec00000f780040002000000f780028ff07002a
:103efc00e20f500039003a00403621009040780023
:103f0c0030c5b30080cf50001d003a005036210060
:103f1c009040780000c3b30080cf500018003a00e6
:103f2c00603621009040780070c4b30080cf500000
:103f3c0013003a00e5fe070031372100914078006c
:103f4c008180fb0000014000804421000000410002
:103f5c0001087800ddfe070080004000804421004d
:103f6c0000804000100078000000e00002003200e9
:103f7c0040002000000f780039ff070017003700c1
:103f8c00403621009040780030c5b30080cf5000ff
:103f9c0012003a00503621009040780010c3b30054
:103fac0080cf50000d003a00603621009040780020
:103fbc0070c4b30080cf500008003a00c3fe070065
:103fcc0031372100914078008180fb0000014000d6
:103fdc00404221000000410001087800ecfe07007f
:103fec00e30f500040003a0040362100904078002a
:103ffc0030c4b30080cf500036003a005036210058
:10400c009040780000c6b30080cf500031003a00d9
:10401c00603621009040780070c4b30080cf50000f
:10402c002c003a00a9fe0700000f78001e00780053
:10403c0080004000404221000080400010007800c9
:10404c000000e00008003a007036210010407800b3
:10405c008080fb001e0078000001400040422100df
:10406c0000004100010878009037210010407800d2
:10407c000080fb00c800dd00803721001040780074
:10408c000080fb00810070001e00780000014000e1
:10409c000043210000004100010878006038210035
:1040ac00104078000080fb00c800dd005038210073
:1040bc00104078000080fb00810070001e0078002a
:1040cc0000014000c04321000000410001087800bd
:1040dc000400370040002000000f78002002200070
:1040ec00000f7800defe0700a9fe0700e40f500069
:1040fc0001003a00dafe0700a5fe0700e50f5000ac
:10410c0001003a00d6fe0700a1fe0700e60f5000a2
:10411c0001003a00d2fe0700f20b07002103200039
:10412c00810f50001c0034000000eb00010c070054
:10413c001e009000e20f500011003200e20f500000
:10414c0005003c000000e00008003200e10f5000c8
:10415c000900320010003700e30f50000a00320053
:10416c00e40f50000a0032000b003700bcfe0700c1
:10417c008e05070008003700b9fe0700060037005f
:10418c00b7fe070004003700b5fe07000200370039
:10419c00b3fe0700000000000080fa0000000600db
:1041ac000000fa0013d0bf000080fa0000000600e7
:1041bc000000fa0012d0bf000080fa0000000600d8
:1041cc000000fa004006200001002000b00b0700a0
:1041dc0000000000990b0700e00f5000e08f580022
:1041ec00fcff3a008025200001002000a80b0700ee
:1041fc0000000000910b0700e00f5000e08f58000a
:10420c00fcff3a0091f10700090807000080fa0052
:10421c00000006000200fa00442ea800440ea8007c
:10422c0025050700e001200001002000980b070085
:10423c0000000000810b0700e00f5000e08f5800d9
:10424c00fcff3a000000eb00000f78000300370081
:10425c003000200094fe07001e0fe8001e007800be
:10426c00e50f5000faff340060a0800071a08000c0
:10427c00e00f5000e08f58000c003a00a007070038
:10428c00442ea900440ea800007d2000010020004f
:10429c007f0b070000000000680b0700e00f5000c8
:1042ac00e08f5800fcff3a00dbff37000630ef00d0
:1042bc000000eb00000f78000c0037001e007800a7
:1042cc00c200dd00c0402100008040001000be0094
:1042dc00e00f5000e08f5800030032003080800067
:1042ec000000e800308088001e0fe8001e007800f7
:1042fc00e50f5000f1ff3400000000000080fa00d0
:10430c00000006000800fa0020079800310798000a
:10431c002e009000be009000d3fd070010079800ff
:10432c000000eb00000f7800220037000000eb00cb
:10433c00000f78001c0037001e0178002e00900042
:10434c00be0090007706070040012000010020000d
:10435c004f0b070000000000380b0700e00f500067
:10436c00e08f5800fcff3a00300020004efe0700a2
:10437c001e00900080004000404221000080400060
:10438c00100078000000e000060032001e009000d3
:10439c008000400040422100008040001000780066
:1043ac000c0037001e0fe8001e007800e60f5000ce
:1043bc00e1ff34001e0090008000400040422100cc
:1043cc0000804000100078000000e000d7ff3200b1
:1043dc000000eb000080fa00000006000200fa006a
:1043ec000000eb00000f78001e0037001e00780064
:1043fc00c200dd00c0402100008040001000be0063
:10440c00e00f5000e08f5800150032001e007800bd
:10441c0080004000404221000080400010017800e4
:10442c001e007800c200dd00c0402100008040006a
:10443c001000be009a050700400620000100200075
:10444c00130b070000000000fc0a0700e00f5000ef
:10445c00e08f5800fcff3a002000200012fe0700fd
:10446c001e0fe8001e007800e50f5000dfff34003f
:10447c000080fa00000006000200fa000000eb00c9
:10448c00000f78001e0037001e007800c200dd000f
:10449c00c0402100008040001000be00e00f500022
:1044ac00e08f5800150032001e007800800040009c
:1044bc004042210000804000100178001e0078006e
:1044cc00c200dd00c0402100008040001000be0092
:1044dc00ab0507004006200001002000ec0a070095
:1044ec0000000000d50a0700e00f5000e08f5800d4
:1044fc00fcff3a0020002000ebfd07001e0fe80037
:10450c001e007800e50f5000dfff34000080fa0039
:10451c00000006000200fa000000eb00000f78001b
:10452c00330037001e007800c200dd00c0402100bf
:10453c00008040001000be00e00f5000e08f5800db
:10454c002a0032002830ef001e0078008000400066
:10455c004042210000804000100178001e007800cd
:10456c00c200dd00c0402100008040001000be00f1
:10457c00ec050700a000200001002000c40a070081
:10458c0000000000ad0a0700e00f5000e08f58005b
:10459c00fcff3a0030002000c3fd07004081800082
:1045ac000000e00011003a0010c0b30008f0b700a2
:1045bc001e007800c200dd00c040210000814000d8
:1045cc006000b8000089be001e007800800040002a
:1045dc0040422100008040008000eb000108780080
:1045ec00308080000000e900308088001e0fe80059
:1045fc001e007800e50f5000caff34000080fa005e
:10460c00000006000200fa000000eb00000f78002a
:10461c00150037001e007800c200dd00c0402100ec
:10462c00008040001000be00e00f5000e08f5800ea
:10463c000c0032001e007800c200dd00c0402100da
:10464c00008040001000be002eff070080007800a4
:10465c001e00780000014000404221000000410093
:10466c00010878001e0fe8001e007800e50f5000ce
:10467c00e8ff34000080fa00000006000200fa0097
:10468c000000eb00000f78000d0037001e007800d2
:10469c008000400000432100008040008000eb00bf
:1046ac00010878001e00780080004000c043210003
:1046bc00008040008000eb00010878001e0fe8002d
:1046cc001e007800e50f5000f0ff34000080fa0067
:1046dc00000006000200fa000000eb00000f78005a
:1046ec001c0037001e007800c200dd00c040210015
:1046fc00008040001000be00e00f5000e08f58001a
:10470c00130032001e00780080004000404221005f
:10471c000080400010007800004078008041780054
:10472c000001eb008000eb0000c0eb009c060700d2
:10473c00c05d200001002000550a070000000000a9
:10474c003e0a0700e00f5000e08f5800fcff3a00d3
:10475c001e0fe8001e007800e50f5000e1ff34004a
:10476c000080fa00000006000400fa000000eb00d4
:10477c00000f78000000eb00100798001b003700ba
:10478c001e009000c200dd00c040210000804000ef
:10479c001000be00e00f5000e08f580010003200f7
:1047ac001e0090008000400000432100008040006b
:1047bc00900078001e00780000804000000f780008
:1047cc001e00900080004000c0432100008040008b
:1047dc00900078001e00780000804000000f7800e8
:1047ec001e0090000000e800100798001e009000ca
:1047fc00e50f5000e2ff34001e0078000080fa0044
:10480c00000006000200fa000000eb00000f780028
:10481c001b0037001e007800c200dd00c0402100e4
:10482c00008040001000be00e00f5000e08f5800e8
:10483c00120032001e00780080004000004321006e
:10484c000080400090007800e00f2000808f500026
:10485c0008003e001e00780080004000c04321008c
:10486c000080400090007800e00f2000808f500006
:10487c000200360010c0b300050037001e0fe80020
:10488c001e007800e50f5000e2ff34000040eb0002
:10489c000080fa00000006002200fa000000eb0085
:1048ac00200798000000eb00000f78000b00370089
:1048bc001e00780000004000660040008080eb0085
:1048cc00013778001e0078000000400074004000a2
:1048dc008080eb00013778001e0fe8001e00780086
:1048ec00e50f5000f2ff34000000eb00000f7800e1
:1048fc00450037001e007800c200dd00c0402100da
:10490c00008040001000be00e00f5000e08f580007
:10491c003c0032001e007800800040004042210024
:10492c000080400090007800110798001e0078006d
:10493c00800040000043210000804000900078007f
:10494c001e00900000004000660040006e007800e1
:10495c00808f500006003e001e00900000004000ba
:10496c00660040006e007800e10f40000a003a003b
:10497c001e007800800040000043210000804000b1
:10498c0010007800800078001e00900000004000ad
:10499c0066004000013778001e007800800040005f
:1049ac00c043210000804000900078001e00900061
:1049bc0000004000740040006e007800808f5000b2
:1049cc0006003e001e0090000000400074004000f5
:1049dc006e007800e10f40000a003a001e007800db
:1049ec0080004000c043210000804000100078008f
:1049fc00800078001e009000000040007400400011
:104a0c00013778001e0fe8001e007800e50f5000fb
:104a1c00b8ff340050ccb30068ef070000c0eb00c7
:104a2c0066ef07000000eb00100798002500370028
:104a3c001e00900000004000660040006e007800f0
:104a4c00e10f40001c0032001e0090000000e90045
:104a5c00000040000000e80020079800f0cbb300f5
:104a6c0056ef07002e0090000040780053ef07002f
:104a7c001e00900000004000660040006e007800b0
:104a8c00004078004def0700f0cbb3004bef070070
:104a9c002e009000004078000040e80047ef07002f
:104aac001e00900000004000740040006e00780072
:104abc000040780041ef07001e0090000000e80065
:104acc00100798001e009000e50f5000d8ff34002e
:104adc000080fa00000006000600fa000000eb005f
:104aec00200798004d00370010c0b300ae009000b6
:104afc00ea8f500001003c000040eb00ae0090003b
:104b0c008100e800210798000004e0000100320059
:104b1c000000fe006000b800008fbe0030003700bf
:104b2c001e007800c200dd00c04021000080400063
:104b3c001000be00e00f5000e08f5800240032003f
:104b4c001e007800800040000043210000804000df
:104b5c00100078000000e00007003a001e0078000a
:104b6c0080004000c043210000804000100078000d
:104b7c000000e000160032001e00780080004000ab
:104b8c004042210000804000100078000041780075
:104b9c001e007800c200dd00c040210000804000f3
:104bac001000be0086030700a000200001002000ba
:104bbc00370907000000000020090700e00f500033
:104bcc00e08f5800fcff3a004000200036fc070044
:104bdc0012002000030020001e0f41005e974900c8
:104bec001e01be005000200001002000800f51006b
:104bfc00818f5900caff360046fe07004006200090
:104c0c000100200022090700000000000b0907002a
:104c1c00e00f5000e08f5800fcff3a00d2fe070076
:104c2c000000e000b0ff3c000080fa00000006002d
:104c3c000200fa00600a2000000f780012d0bf00ba
:104c4c000004e00002003a00910220001e8f400098
:104c5c0013d0bf000004e00002003a0091022000d3
:104c6c001e8f400014d0bf000004e00002003a0088
:104c7c00910220001e8f400015d0bf000004e00000
:104c8c0002003a00910220001e8f400016d0bf0097
:104c9c000004e00002003a00910220001e8f400048
:104cac0017d0bf000004e00002003a00910220007f
:104cbc001e8f40001e0078000080fa0000000600e5
:104ccc000400fa000040eb002047980050ccb300e1
:104cdc00baee070000c0eb00b8ee0700d0cdb30071
:104cec00b6ee0700e0cbb300b4ee07000000eb001b
:104cfc00000f78000b0037001e0078008000400089
:104d0c004042210000804000100078000000e000cc
:104d1c00030032002e4090000040e800204798002d
:104d2c001e0fe8001e007800e50f5000f2ff340063
:104d3c002e409000a1ee07000080fa000000060053
:104d4c000000fa0050ccb3009cee070000c0eb0052
:104d5c009aee0700d0cdb30098ee0700e0cdb3007b
:104d6c0096ee07000040eb0094ee07000080fa007e
:104d7c00000006000000fa0050ccb3008fee0700d4
:104d8c0000c0eb008dee0700d0cdb3008bee07001a
:104d9c0000cbb30089ee0700013a8000000420002c
:104dac00008060000000e000040032000040eb00d6
:104dbc0082ee070040c7a90023003700003a8000ac
:104dcc00620060000000e0000400320010c0b3007c
:104ddc007aee07004027a9001b003700003a80003c
:104dec00700060000000e0000400320020c0b3003e
:104dfc0072ee07004087a90013003700013a8000cb
:104e0c0000082000008060000000e0000400320078
:104e1c0040c0b30069ee070040e7a9000a00370064
:104e2c00003a8000610060000000e00004003200e5
:104e3c0030c0b30061ee07004007a9000200370044
:104e4c0000c0eb005dee07000080fa0000000600d9
:104e5c000200fa00004f780050ccb30057ee070068
:104e6c0000c0eb0055ee0700d0cdb30053ee0700a9
:104e7c00e0ceb30051ee07001e4078004fee070065
:104e8c00800c2000010020008108070000000000b9
:104e9c006a080700e00f5000e08f5800fcff3a0052
:104eac000080fa00000006000200fa00000f7800f3
:104ebc0002d0bf000004e0001900320050ccb30057
:104ecc003eee070000c0eb003cee0700d0cdb30077
:104edc003aee070000cbb30038ee070004003700b1
:104eec001e007800104078001e0fe80033ee07001b
:104efc001e007800104078000004e000f8ff3a0033
:104f0c00800c200001002000610807000000000058
:104f1c004a080700e00f5000e08f5800fcff3a00f1
:104f2c000080fa00000006001000fa006000b800d3
:104f3c00008fbe000000eb00600798000000eb0043
:104f4c00200798000000eb00500798009e0907000e
:104f5c001e2eef002e2eef003e2eef004e2eef00f9
:104f6c006e2eef002d0807000000eb0040079800a4
:104f7c0017003700442ea900440ea800400620005c
:104f8c000100200042080700000000002b08070069
:104f9c00e00f5000e08f5800fcff3a00442ea800b0
:104fac00440ea9004006200001002000380807002c
:104fbc000000000021080700e00f5000e08f5800af
:104fcc00fcff3a004e0090000000e80040079800fb
:104fdc004e009000f30f5000e6ff34006ffa07000c
:104fec008cfc070087fd070023fd0700bafe0700b5
:104ffc00fafc070010fb0700442ea900440ea90080
:10500c000000eb00400798000c00370041fd070042
:10501c00a0002000010020001d0807000000000077
:10502c0006080700e00f5000e08f5800fcff3a0024
:10503c004e0090000000e800400798004e009000e1
:10504c00f30f5000f1ff3400442ea800440ea800ca
:10505c00f9fa070047ff07000000eb003007980043
:10506c000060fe00160037006e4890000080fb00c8
:10507c00210f2000810f500008003200310f20005a
:10508c00810f500007003200110f2000810f5000db
:10509c0008003a000000fe000900370008ff070076
:1050ac000700370010c0b30002f0b70024ff070060
:1050bc000300370020c0b30065ff070000000000ac
:1050cc006e004700daed07000004e000e6ff3a004e
:1050dc00d7fe0700208088000efd070008d0bf0017
:1050ec000004e000100032000040eb0058ff070005
:1050fc0020e228006cff0700442ea900440ea900f2
:10510c00800c200001002000e107070000000000d7
:10511c00ca070700e00f5000e08f5800fcff3a0070
:10512c000870ef000000fe00308080000000e000fe
:10513c0010003c0012002000030020001e0f410054
:10514c005e97490000282300210020001e01be00ac
:10515c00800f5100818f590008003400e0e22800d4
:10516c0051ff070010c0b30039ff07000000fe001c
:10517c00020037006000b800008fbe007afd070007
:10518c0060079800ae0090006e009000808f500079
:10519c0005003200ee01900023079800442ea90070
:1051ac0010c0b30009f0b70009d0bf00e14f5000a8
:1051bc0004003a00440ea9003e0090000000e800f4
:1051cc00300798002000200001002000b0070700e5
:1051dc000000000099070700e00f5000e08f580016
:1051ec00fcff3a00440ea80020062000010020001d
:1051fc00a70707000000000090070700e00f500011
:10520c00e08f5800fcff3a0010c0b300de009000a5
:10521c00ef8f500001003c000040eb00de009000de
:10522c008100e800510798000004e0000b003200f8
:10523c000000eb0050079800442ea900200020002d
:10524c000100200092070700000000007b07070008
:10525c00e00f5000e08f5800fcff3a00442ea800ed
:10526c0068fd07000004e00004003a002080800084
:10527c00be009000808f500010003500440ea90035
:10528c0085fd070014fe07000000eb0020079800c6
:10529c00401f2000010020007d07070000000000d7
:1052ac0066070700e00f5000e08f5800fcff3a0043
:1052bc000000eb00300798000970ef00440ea800c6
:1052cc0067ff37001000fa0020079800310798009c
:1052dc0042079800530798006407980075079800d8
:1052ec006000b800008fbe002e009000be00900041
:1052fc00c601dd00020020004e009000de00900090
:10530c00c300dd00000020000001710081817100ec
:10531c006e009000fe009000001f7100019771005c
:10532c001e00be000080fa00000006000a00fa0011
:10533c00000f7800214798003247980043479800a7
:10534c00544798006547980076479800074f980097
:10535c001e007800ae409000014898001e007800b6
:10536c00be409000114898001e007800ce4090007e
:10537c00214898001e007800de40900031489800cb
:10538c001e007800ee409000414898001e00780006
:10539c00fe409000514898001e0078008e48900006
:1053ac00614898001e0078008ef8970071489800ac
:1053bc000080fa00000006002c00fa00700f980024
:1053cc0001179800121798002317980034179800ab
:1053dc0045179800266f9800376f9800ae689000bc
:1053ec0000c3b30000c070004047980010c0b30069
:1053fc00004f78003e129000ce1290001e119000cb
:10540c00ae1190007e0890008e109000adff07004a
:10541c0030079800410798000000eb001007980037
:10542c001eb89700630040005007980030c0b300ce
:10543c00504f98003e009000ce009000000f980056
:10544c00110f98001eb897000000e0000300340014
:10545c0080c0b300405f98000200370070c0b300fa
:10546c00405f98009e407800415798001e4fe8001e
:10547c00ce409000515798005e009000004078009c
:10548c00605798005e0090004880de000040780075
:10549c00705798003e689000e14f500004003a00ad
:1054ac00fe50900000c8b30000c070007057980008
:1054bc008ef89700015f9800eef09700115f98004e
:1054cc00cef09700215f98001eb897000000e00016
:1054dc00090034000eb8970010407800305f980037
:1054ec000eb897000000e80000bf9f001eb89700a0
:1054fc000000e90010bf9f006c00470074f8070023
:10550c00680037001eb89700e70f50001f003c00e2
:10551c001eb89700004078000040e800405f9800fb
:10552c009e407800415798001e4fe8001000200064
:10553c00100798000b0037000eb8970090407800c9
:10554c001e00900074004000017778000eb89700a0
:10555c000000e80000bf9f001e0090000000e80063
:10556c00100798001eb897008000e8001e009000fd
:10557c00808f5000f0ff3c000000eb0010bf9f003c
:10558c006c00470052f807004600370080c0b3009b
:10559c00405f98009e407800415798001e4fe800ed
:1055ac000eb8970010407800505798000eb897002e
:1055bc000000e80000bf9f001eb897000000e90043
:1055cc0010bf9f000eb897001040780060579800ed
:1055dc000eb897000000e80000bf9f001eb89700af
:1055ec000000e90010bf9f000eb897001040780033
:1055fc00705798000eb897000000e80000bf9f009d
:10560c001eb897000000e90010bf9f000eb897006d
:10561c0010407800005f98000eb897000000e8007a
:10562c0000bf9f001eb897000000e90010bf9f004c
:10563c000eb8970010407800105f98000eb89700d5
:10564c000000e80000bf9f001eb897000000e900b2
:10565c0010bf9f000eb8970010407800205f980094
:10566c000eb897000000e80000bf9f001eb897001e
:10567c000000e90010bf9f000eb8970010407800a2
:10568c00305f98000eb897000000e80000bf9f0044
:10569c001eb897000000e90010bf9f006c00470087
:1056ac000bf807001eb897000000e00095ff3c00c7
:1056bc000080fa00000006001600fa00f44d2000ed
:1056cc00650020007200200003002000e001200093
:1056dc0001002000fbfe0700008fbe0030c0b300ad
:1056ec00504798001e00be004007980051079800d4
